:103A660020496E6974205375636365737320212042
:023A76000A0044
:052E96004208D200001B
:1039BB0043B10443B20443B10843B20853C9F743BC
:0339CB00CA082205
:1037B10090082D7440F0A37401F0A3121889000140
:1037C100C2009008347401F0E4A3F07B017A087917
:1037D1002D7F01120AFE7D037F0112355B53A23F4B
:0137E10022C5
:1037E200E490082DF0A304F0E4A3F0A374A2F0A3E4
:1037F2007440F09008337401F0FB7A08792DE4FFED
:0A38020012200DE4FD7F0102359C49
:03000B000233FDC0
:1033FD00C0E0C0F0C083C082C0D075D000C000C096
:10340D0001C002C003C004C005C006C007122C15C0
:10341D009008D3E004F070069008D2E004F0D007D5
:10342D00D006D005D004D003D002D001D000D0D02A
:09343D00D082D083D0F0D0E0323F
:1034D40043BA801239BB1237B11237E2123B2AD2F7
:1034E400AF7BFF7A3A7966121A56122D68E4FBFD17
:1034F400FF1211517B057D01E4FF1211517B067D02
:10350400027F011211517B027D037F0112115112BE
:04351400336880FB9D
:10227400EFD3940740037FFF221215FAFED3940391
:1022840040037FFF22EF7041EE700B9000011216A5
:1022940013F4529352941215FAB4010B90000112E4
:1022A40016134293F452941215FAFEB4020A9000E3
:1022B4000112161342934294EEB4030D90000112DE
:1022C4001613FEF45293EE4294EF64017043121518
:1022D400FAFE700B900001121613F452915292EE12
:1022E400B4010B9000011216134291F4529212158C
:1022F400FAB4020A90000112161342914292121586
:10230400FAB4030D900001121613FEF45291EE423A
:1023140092EF640270431215FAFE700B90000112E2
:102324001613F452955296EEB4010B900001121656
:10233400134295F452961215FAB4020A900001124F
:102344001613429542961215FAB4030D9000011229
:102354001613FEF45295EE4296EF64037043121581
:10236400FAFE700B900001121613F452B152B2EE41
:10237400B4010B90000112161342B1F452B21215BB
:10238400FAB4020A90000112161342B142B21215B5
:10239400FAB4030D900001121613FEF452B1EE428A
:1023A400B2EF640470431215FAFE700B9000011230
:1023B4001613F452B352B4EEB4010B90000112168A
:1023C4001342B3F452B41215FAB4020A9000011283
:1023D400161342B342B41215FAB4030D900001125D
:1023E4001613FEF452B3EE42B4EF640570431215B3
:1023F400FAFE700B900001121613F452C952CAEE81
:10240400B4010B90000112161342C9F452CA1215FA
:10241400FAB4020A90000112161342C942CA1215F4
:10242400FAB4030D900001121613FEF452C9EE42E1
:10243400CAEF640670431215FAFE700B9000011285
:102444001613F452CB52CCEEB4010B9000011216C9
:102454001342CBF452CC1215FAB4020A90000112C2
:10246400161342CB42CC1215FAB4030D900001129C
:102474001613FEF452CBEE42CCEF640770431215F0
:10248400FAFF700B900001121613F452E152E2EFBE
:10249400B4010B90000112161342E1F452E212153A
:1024A400FAB4020A90000112161342E142E2121534
:1024B400FAB4030D900001121613FFF452E1EF4237
:0424C400E27F002291
:100AFE00900837EBF0A3EAF0A3E9F0900836EFF098
:100B0E0064016003020CDC900555F0A3F0A3F0A382
:100B1E00F0A3F090083AF0A3F090083AE0FEA3E0BC
:100B2E00FFC39480EE9400501C74A92FF5827406B6
:100B3E003EF583E4F090083BE004F070DC90083A58
:100B4E00E004F080D4E490083AF0A3F090083AE084
:100B5E00FEA3E0FFC39480EE9400501C74692FF541
:100B6E008274053EF583E4F090083BE004F070DCFF
:100B7E0090083AE004F080D4900837E0FBA3E0FA46
:100B8E00A3E0F91215FAFFE598543F4FF598EF647C
:100B9E00C06008EF64406003020C879000021218D8
:100BAE004D7F807E8D7D5B7C0012174390083C123A
:100BBE00187DE4FFFE7D01FC90083CE0F8A3E0F90F
:100BCE00A3E0FAA3E0FBC31217D540037FFF2290E8
:100BDE00083CE0F8A3E0F9A3E0FAA3E0FBC3E49B32
:100BEE00FFE49AFE740199FDE498FC90083C1218FB
:100BFE007D900837E0FBA3E0FAA3E0F99000011224
:100C0E001613FB64017038C28E538EFE5389BF5388
:100C1E0089CF438E4090083CE0FCA3E0FDA3E0FEAC
:100C2E00A3E0FF78081217E68F8D90083CA3A3A3CC
:100C3E00E0F58BC2AB5389BF538FFDD28E8073EB21
:100C4E0064027032538EEF438E01538EF7438E043F
:100C5E0090083CE0FCA3E0FDA3E0FEA3E0FF7808D3
:100C6E001217E68FD690083CA3A3A3E0F5D753AF97
:100C7E00FB438E10803C7FFF22900837E0FBA3E001
:100C8E00FAA3E0F91215FAFF70139000081216136A
:100C9E00B40105438E20801A538EDF8015EFB48089
:100CAE0011900008121613B4010543878080035378
:100CBE00877F900837E0FBA3E0FAA3E0F9900007E6
:100CCE001216137004C29C8002D29C7F00229008E0
:100CDE0036E064026003020E2690055AF0A3F0A3DC
:100CEE00F0A3F0A3F090083AF0A3F090083AE0FEDB
:100CFE00A3E0FFC39480EE9400501C74492FF5823C
:100D0E0074073EF583E4F090083BE004F070DC904D
:100D1E00083AE004F080D4E490083AF0A3F090088A
:100D2E003AE0FEA3E0FFC39480EE9400501C74E9F9
:100D3E002FF58274053EF583E4F090083BE004F055
:100D4E0070DC90083AE004F080D4900837E0FBA302
:100D5E00E0FAA3E0F91215FAFF64C06008EF6440F0
:100D6E006003020E04EFB4C005439A808003539AC9
:100D7E007F90000212184D7F807E8D7D5B7C00126D
:100D8E00174390083C12187DE4FFFE7D01FC90088D
:100D9E003CE0F8A3E0F9A3E0FAA3E0FBC31217D5F9
:100DAE0040037FFF2290083CE0F8A3E0F9A3E0FAAD
:100DBE00A3E0FBC3E49BFFE49AFE740199FDE49863
:100DCE00FC90083C12187D538EEF538EF7438E0421
:100DDE0090083CE0FCA3E0FDA3E0FEA3E0FF780852
:100DEE001217E68FD690083CA3A3A3E0F5D753AF16
:100DFE00FB438E1080037FFF22900837E0FBA3E0B9
:100E0E00FAA3E0F9900007121613C454F0FFE59A06
:100E1E0054EF4FF59A7F0022900836E0640360038A
:100E2E00020FBA90055FF0A3F0A3F0A3F0A3F09029
:100E3E00083AF0A3F090083AE0FEA3E0FFC3944016
:100E4E00EE9400501C74C92FF58274073EF583E4AE
:100E5E00F090083BE004F070DC90083AE004F0807B
:100E6E00D4E490083AF0A3F090083AE0FEA3E0FF35
:100E7E00C39440EE9400501C74692FF58274063EA4
:100E8E00F583E4F090083BE004F070DC90083AE063
:100E9E0004F080D4900837E0FBA3E0FAA3E0F91247
:100EAE0015FAFF64C06008EF64406003020F98EF0C
:100EBE00B4C00543AC80800353AC7F90000212187F
:100ECE004D7F807E8D7D5B7C0012174390083C1217
:100EDE00187DE4FFFE7D01FC90083CE0F8A3E0F9EC
:100EEE00A3E0FAA3E0FBC31217D540037FFF2290C5
:100EFE00083CE0F8A3E0F9A3E0FAA3E0FBC3E49B0F
:100F0E00FFE49AFE740199FDE498FC90083C1218D7
:100F1E007D900837E0FBA3E0FAA3E0F99000011200
:100F2E001613FB6403702943AC4090083CE0FCA30D
:100F3E00E0FDA3E0FEA3E0FF78081217E68FD49041
:100F4E00083CA3A3A3E0F5D553D1F043D10A803DCD
:100F5E00EB64027032538EEF53ACBF538EF7438E59
:100F6E000490083CE0FCA3E0FDA3E0FEA3E0FF78C4
:100F7E00081217E68FD690083CA3A3A3E0F5D7532B
:100F8E00AFFB438E1080067FFF227FFF2290083733
:100F9E00E0FBA3E0FAA3E0F9900007121613C45485
:100FAE00F0FFE5AC54EF4FF5AC7F0022900836E031
:100FBE006404600302114E900564F0A3F0A3F0A345
:100FCE00F0A3F090083AF0A3F090083AE0FEA3E008
:100FDE00FFC39420EE9400501C74092FF582740800
:100FEE003EF583E4F090083BE004F070DC90083AA4
:100FFE00E004F080D4E490083AF0A3F090083AE0D0
:10100E00FEA3E0FFC39420EE9400501C74292FF52C
:10101E008274073EF583E4F090083BE004F070DC48
:10102E0090083AE004F080D4900837E0FBA3E0FA91
:10103E00A3E0F91215FAFF64C06008EF6440600384
:10104E0002112CEFB4C005438480800353847F903B
:10105E00000212184D7F807E8D7D5B7C001217433F
:10106E0090083C12187DE4FFFE7D01FC90083CE0E8
:10107E00F8A3E0F9A3E0FAA3E0FBC31217D54003EF
:10108E007FFF2290083CE0F8A3E0F9A3E0FAA3E08A
:10109E00FBC3E49BFFE49AFE740199FDE498FC9077
:1010AE00083C12187D900837E0FBA3E0FAA3E0F9A4
:1010BE00900001121613FB640470294384409008BB
:1010CE003CE0FCA3E0FDA3E0FEA3E0FF78081217CE
:1010DE00E68FD290083CA3A3A3E0F5D353D10F43E0
:1010EE00D1A0803DEB64027032538EEF5384BF5318
:1010FE008EF7438E0490083CE0FCA3E0FDA3E0FED7
:10110E00A3E0FF78081217E68FD690083CA3A3A39E
:10111E00E0F5D753AFFB438E1080067FFF227FFF93
:10112E0022900837E0FBA3E0FAA3E0F99000071243
:10113E001613C454F0FFE58454EF4FF5847F00225C
:02114E007FFF21
:01115000227C
:0F3A9A008F999005577401F0900557E070FA224C
:1039CE001215FAFF600C123A9A740129F9E43AFAC8
:0339DE0080EE2256
:0F3AA9008F9B90055C7401F090055CE070FA2231
:1039E1001215FAFF600C123AA9740129F9E43AFAA6
:0339F10080EE2243
:0F3AB8008FAD9005617401F0900561E070FA2206
:1039F4001215FAFF600C123AB8740129F9E43AFA84
:033A040080EE222F
:0F3AC7008F859005667401F0900566E070FA2215
:103A07001215FAFF600C123AC7740129F9E43AFA61
:033A170080EE221C
:05000600AE07023A9A6A
:10355B00EFD3940140037FFF22EDD3940340037F0D
:10356B00FF22EF7004C2AC8002D2ACED700553B7F2
:10357B00EFC2BCEDB4010553B7EFD2BCEDB40205FD
:10358B0043B710C2BCEDB4030543B710D2BC7F00E8
:01359B00220D
:10351800EFD3940140037FFF22EDD3940340037F50
:10352800FF22E5AF54FE4FF5AFED700653B6FE53DC
:10353800B5FEEDB4010653B6FE43B501EDB402067F
:1035480043B60153B5FEEDB4030643B60143B501D6
:033558007F0022CF
:1033B300EFD3940140037FFF22EDD3940340037FB7
:1033C300FF22EF33333354F8FFE5AF54F74FF5AF34
:1033D300ED700653EEFE53DFFEEDB4010653EEFE31
:1033E30043DF01EDB4020643EE0153DFFEEDB40308
:0A33F3000643EE0143DF017F0022D4
:10344600EFD3940140037FFF22EDD3940340037F23
:10345600FF22EFC454F0FFE5AF54EF4FF5AFED7028
:103466000653EEFD53DFFDEDB4010653EEFD43DFDB
:1034760002EDB4020643EE0253DFFDEDB40306434C
:08348600EE0243DF027F002289
:0300230002331C89
:10331C00C0E0C083C082C0D075D000C007309827F1
:10332C00C298900558E0C394804002E4F090055890
:10333C00E0FF04F074692FF582E43405F583E59918
:10334C00F09005597405F0309907C299900557E42F
:0C335C00F0D007D0D0D082D083D0E03277
:030043000231D4B3
:1031D400C0E0C083C082C0D075D000C007E59A307B
:1031E400E028539AFE90055DE0C394804002E4F029
:1031F40090055DE0FF04F074E92FF582E43405F5F1
:1032040083E59BF090055E7405F0E59A30E1085380
:103214009AFD90055CE4F0D007D0D0D082D083D062
:02322400E03296
:03008B0002322618
:10322600C0E0C083C082C0D075D000C007E5AC3016
:10323600E02853ACFE900562E0C394404002E4F0FF
:10324600900562E0FF04F074692FF582E43406F518
:1032560083E5ADF09005637405F0E5AC30E1085305
:10326600ACFD900561E4F0D007D0D0D082D083D0F9
:02327600E03244
:03009300023278BE
:10327800C0E0C083C082C0D075D000C007E58430EC
:10328800E0285384FE900567E0C394204002E4F0F0
:10329800900567E0FF04F074292FF582E43407F500
:1032A80083E585F09005687405F0E58430E10853FE
:1032B80084FD900566E4F0D007D0D0D082D083D0CA
:0232C800E032F2
:102E9B004108550060240856000000000A0000009D
:102EAB000AFF3B5A000000001400000014FF009EB4
:102EBB000000000032000003E8FF336841087A038A
:093B2A00123AF112008E0229DEAC
:102C1500E4900829F0F090087AE0FF900829E0FE9A
:072C2500C39F4003022CCA0B
:102C2C00EE75F00CA42456F9740835F0FAA374016F
:102C3C00F0A3EAF0A3E9F0900855E0640160769007
:102C4C00082AE0FBA3E0FAA3E0F99000011217F9BF
:102C5C00EC4D4E4F601C9000011217F9EF24FFFF52
:102C6C00EE34FFFEED34FFFDEC34FFFC900001125E
:102C7C00182990082AE0FBA3E0FAA3E0F9900001E0
:102C8C001217F9E4FBFAF9F8C31217D5702790085C
:102C9C002AE0FBA3E0FAA3E0F974011216409008B5
:102CAC002AE0FBA3E0FAA3E0F99000051217F990D3
:052CBC000001121829BF
:092CC100900829E004F0022C1B2C
:012CCA0022E7
:10317600E49008CEF0F090087AE0FF9008CEE0FEEA
:04318600C39F50494A
:10318A00EE75F00CA42456F9740835F0FA7B01A305
:10319A00EBF0A3EAF0A3E9F01215FAB401239008C0
:1031AA00CFE0FBA3E0FAA3E0F9E41216409008CFBF
:1031BA00E0FBA3E0FAA3E0F99000091218C612187E
:0131CA00F60E
:0831CB009008CEE004F080A999
:0131D30022D9
:073B4D009008557401F022FD
:063B5400E4900855F02288
:10200D00AD07ED7079C28C1215FAFED3940340031F
:10201D007FFF22E58954FC4EF589900001121613BD
:10202D00FED3940240037FFF22EE7006538E7F5342
:10203D0089FB900001121613B40106438E8053895B
:10204D00FB900001121613B40203438904900002A1
:10205D00121613FFE58F54FE4FF58F9000031216E5
:10206D00CFE5F0F58C9000031216CFF58A9000069F
:10207D001216137004C28C8002D28C7F0022ED6484
:10208D00016003022113C28E1215FAFED394034090
:10209D00037FFF22EEC454F0FFE58954CF4FF5893D
:1020AD00900001121613FED3940240037FFF22EE1F
:1020BD007006538EBF5389BF900001121613B401E1
:1020CD0006438E405389BF900001121613B40203CC
:1020DD0043894090000212161325E0FFE58F54FD51
:1020ED004FF58F9000031216CFE5F0F58D9000039C
:1020FD001216CFF58B9000061216137004C28E8047
:10210D0002D28E7F0022ED64027065538EEF900037
:10211D0001121613FF7006538EFB538EF7EFB401A9
:10212D0006438E04538EF7EFB40203438E089000DE
:10213D000212161325E025E0FFE58F54FB4FF58FB6
:10214D009000031216CFE5F0F5D69000031216CFCE
:10215D00F5D790000512161390FEA2F0900006120E
:10216D001613C454F0FFE58E54EF4FF58E7F002209
:10217D00ED6403707253D1F7900001121613FED364
:10218D00940240037FFF22EE700653D1FD53D1FB25
:10219D00900001121613B4010643D10253D1FB90E6
:1021AD000001121613B4020343D10490000212165B
:1021BD0013FFE5D154FE4FF5D19000031216CFE574
:1021CD00F0F5D49000031216CFF5D5900005121638
:1021DD001390FEA3F090000612161333333354F808
:1021ED00FFE5D154F78077ED6404707853D17F907B
:1021FD000001121613FED3940240037FFF22EE70EE
:10220D000653D1DF53D1BF900001121613B401064E
:10221D0043D12053D1BF900001121613B4020343D2
:10222D00D140900002121613C454F0FFE5D154EFC3
:10223D004FF5D19000031216CFFDACF0ECF5D2AFF7
:10224D00058FD390000512161390FEA4F090000692
:10225D00121613C43333335480FFE5D1547F4FF539
:07226D00D17F00227FFF2258
:10359C00EFD3940140037FFF22EDD3940340037FCC
:1035AC00FF22EF7004C2A98002D2A9ED700553B7B7
:1035BC00FDC2B9EDB4010553B7FDD2B9EDB40205A6
:1035CC0043B702C2B9EDB4030543B702D2B97F00C9
:0135DC0022CC
:1035DD00EFD3940140037FFF22EDD3940340037F8B
:1035ED00FF22EF7004C2AB8002D2ABED700553B772
:1035FD00F7C2BBEDB4010553B7F7D2BBEDB402056D
:10360D0043B708C2BBEDB4030543B708D2BB7F0077
:01361D00228A
:1038D000EFD3940140037FFF22EDD3940340037F95
:1038E000FF22EF25E025E0FFE5AF54FB4FF5AFE405
:0238F000FF22B5
:1038F200EFD3940140037FFF22EDD3940340037F73
:10390200FF22EFC43354E0FFE5AF54DF4FF5AFE4DD
:02391200FF2292
:10388A00EFD3940140037FFF22EDD3940340037FDB
:10389A00FF22EFC4333354C0FFE5AF54BF4FF5AF37
:0338AA00E4FF2216
:03001B0002000ED2
:03000E00B2EF321C
:0300630002001682
:03001600B2ED3216
:03009B0002001E42
:03001E00B2EC320F
:0300A300020086D2
:03008600B2EB32A8
:073AFE00D2B3123B05D2B266
:043B05007F0CDFFE54
:013B09002299
:0D3AE400123AFEC2B3123B05C2B2023B050E
:0A3B1600C2B3123B00D2B3023B051C
:0A3B2000C2B3123B00C2B2023B0523
:083B4500123AFEC2B2023B0578
:053A7800AF041200265E
:0C3A7D00123AFEA2B392D5C2B2023B0581
:02002600AE0723
:100028007D08EE30E704D2B38002C2B3EE25E0FECD
:0A003800123B00C2B2123B05DDE8E6
:01004200229B
:100066007D08D2B3D2B2123B05EE25E0FE30B301D5
:0A0076000EC2B2123B05DDECAF062E
:01008000225D
:1036E100AE07AC05123AE4AF06120026123A7D206D
:1036F100D522123A7820D51C1215FAFF1200267431
:103701000129F9E43AFA123A7D20D508900845E0FA
:0737110014F070E4023B1606
:1032CA009008C9EDF0AC07123AE4123A7820D53FDB
:1032DA00E0FF120026123A7D20D534123AE4EC447B
:1032EA0001FF120026123A7D20D524120066EF1241
:1032FA001640740129F9E43AFA9008CDE0640160B5
:10330A0003123B209008CDE014F070DF123B450217
:02331A003B1660
:10374C00EFD3940140037FFF22EF7010C289121552
:10375C00FA7004C2888002D2887F0022EFB4011074
:10376C00C28B1215FA7004C28A8002D28A7F0022A0
:03377C007FFF22AA
:10361E00EFD3940140037FFF22EDD3940340037F49
:10362E00FF22EF7004C2A88002D2A8ED700553B736
:10363E00FEC2B8EDB4010553B7FED2B8EDB4020523
:10364E0043B701C2B8EDB4030543B701D2B87F004A
:01365E002249
:10365F00EFD3940140037FFF22EDD3940340037F08
:10366F00FF22EF7004C2AA8002D2AAED700553B7F1
:10367F00FBC2BAEDB4010553B7FBD2BAEDB40205E4
:10368F0043B704C2BAEDB4030543B704D2BA7F00FF
:01369F002208
:10396500EFD3940140037FFF22EFC454F0FFE58FAE
:0839750054EF4FF58FE4FF222F
:10394C00EFD3940140037FFF22EFC43354E0FFE533
:09395C008F54DF4FF58FE4FF22C8
:10393200EFD3940140037FFF22EFC4333354C0FF1F
:0A394200E58F54BF4FF58FE4FF221C
:03000300020011E7
:0100110032BC
:03001300023A1A94
:103A1A00C0E0C083C0829008D87402F0D082D083FC
:033A2A00D0E032B7
:03008300023A2D11
:103A2D00C0E0C083C0829008D87405F0D082D083E6
:033A3D00D0E032A4
:102ECB0043089000060043087E0204004308870471
:102EDB00020043088106000043088D0400024308EA
:0A2EEB008A00000643088400030378
:10283C00EFB4080040030228F190284CF8282873C4
:10284C0002286402286702287D0228920228A70227
:10285C0028BC0228D10228E60228F190087EE090DC
:10286C00087BF090087FE090087CF09008800229AB
:10287C0004900887E090087BF0900888E090087C32
:10288C00F09008898072900881E090087BF09008A5
:10289C0082E090087CF0900883805D90088DE09039
:1028AC00087BF090088EE090087CF090088F8048B0
:1028BC0090088AE090087BF090088BE090087CF000
:1028CC0090088C8033900884E090087BF090088509
:1028DC00E090087CF0900886801EE490087BF0A3C2
:1028EC00F0A3F08018900890E090087BF09008918D
:1028FC00E090087CF0900892E090087DF07B017AE3
:03290C0008797BCC
:01290F0022A5
:031D500090082FC9
:101D5300123035900831E0FF12283CE94A70067BC7
:101D6300017A08799090082FE0FF704CA3E0FEC33E
:101D7300941C400302200C1215FAFDEE75F003A427
:101D830024ECF582E43404F583EDF090000112169F
:101D930013FDEE75F003A424EDF582E43404F5831A
:101DA300EDF0900002121613FDEE75F003A424EE7D
:101DB300F582E43404021E60EF6401704E90083033
:101DC300E0FFC39407400302200C1215FAFEEF75DF
:101DD300F003A42440F582E43405F583EEF090008B
:101DE30001121613FEEF75F003A42441F582E434C7
:101DF30005F583EEF0900002121613FEEF75F00363
:101E0300A42442F582E43405021EB990082FE0FFB2
:101E13006402704FA3E0FEC3941C400302200C1223
:101E230015FAFDEE75F003A42444F582E43404F5B9
:101E330083EDF0900001121613FDEE75F003A42458
:101E430045F582E43404F583EDF090000212161395
:101E5300FDEE75F003A42446F582E43404F583ED26
:101E6300F08057EF6403600302200C900830E0FF1A
:101E7300C3941C400302200C1215FAFEEF75F00305
:101E8300A42498F582E43404F583EEF09000011263
:101E93001613FEEF75F003A42499F582E43404F5D8
:101EA30083EEF0900002121613FEEF75F003A424E4
:101EB3009AF582E43404F583EEF090082FE0FF6096
:101EC30003B40105122AA38003122B5C9008D2E00D
:101ED300FCA3E0FDA3E0FEA3E0FF90083412187D0D
:101EE300900834E0F8A3E0F9A3E0FAA3E0FB90083C
:101EF300D2E0FCA3E0FDA3E0FEA3E0C39BFFEE9AC8
:101F0300FEED99FDEC98FCE47B0AFAF9F8D312177D
:101F1300D550CDE4FFFEFC7D0C12165290082FE045
:101F2300600464017048E4900832F0A3F074A02FB9
:101F3300F58274023EF583E0F5CF0FEF70010EC317
:101F430094A4EE94014003E4FEFFE5CD30E7FB7576
:101F5300CDC0900833E004F07006900832E004F03E
:101F6300900832E0B401C6A3E0B4A4C18054900841
:101F73002FE0FD64026005ED64037046E4900832CF
:101F8300F0A3F074002FF58274003EF583E0F5CFE3
:101F93000FEF70010EC394A0EE94024003E4FEFF22
:101FA300E5CD30E7FB75CDC0900833E004F0700653
:101FB300900832E004F0900832E0B402C6A3E0B423
:101FC300A0C19008D2E0FCA3E0FDA3E0FEA3E0FFE4
:101FD30090083412187D900834E0F8A3E0F9A3E0E8
:101FE300FAA3E0FB9008D2E0FCA3E0FDA3E0FEA38C
:101FF300E0C39BFFEE9AFEED99FDEC98FCE47B1E9B
:09200300FAF9F8D31217D550CDFB
:01200C0022B1
:0311510090082DD6
:1011540012303590082DE0FF700A7C047DECAE045B
:10116400AF058032EFB401087B017A057940802213
:1011740090082DE0FFB402087B017A0479448012C0
:10118400EFB403087B017A04799880067B007A0027
:101194007900AE02AF0190082FEEF0A3EFF09008B3
:1011A4002EE0FF12283CE94A70067B017A08799008
:1011B40090082DE0600302124090082F7404F0A3FD
:1011C40074ECF0E4A3F0A3F0900831E0FEA3E0FF98
:1011D400C3941CEE940040030214AA1215FAFD9065
:1011E40004EC75F003EF1218BAEE75F003A425832E
:1011F400F583EDF0900001121613FD9004ED75F0E7
:1012040003EF1218BAEE75F003A42583F583EDF00D
:10121400900002121613FD9004EE75F003EF1218FD
:10122400BAEE75F003A42583F583EDF0900832E05F
:1012340004F07094900831E004F0808C90082DE064
:101244006401600302130F90082F7405F0A3744027
:10125400F0E4A3F0A3F0C3900832E09415900831B1
:10126400E09400502B90082FE0FEA3E0F5828E83DB
:10127400E4F0900832E004F07006900831E004F0E5
:10128400900830E004F070CE90082FE004F080C69F
:10129400E4900831F0A3F0900831E0FEA3E0FFC32E
:1012A4009407EE940040030214AA1215FAFD900567
:1012B4004075F003EF1218BAEE75F003A42583F518
:1012C40083EDF0900001121613FD90054175F003B3
:1012D400EF1218BAEE75F003A42583F583EDF090B0
:1012E4000002121613FD90054275F003EF1218BAAE
:1012F400EE75F003A42583F583EDF0900832E00445
:10130400F07094900831E004F0808C90082DE06433
:101314000260030213DE90082F7404F0A37444F0F7
:10132400E4A3F0A3F0C3900832E09454900831E0B1
:101334009400502B90082FE0FEA3E0F5828E83E406
:10134400F0900832E004F07006900831E004F09068
:101354000830E004F070CE90082FE004F080C6E47A
:10136400900831F0A3F0900831E0FEA3E0FFC394AD
:101374001CEE940040030214AA1215FAFD900444D2
:1013840075F003EF1218BAEE75F003A42583F58304
:10139400EDF0900001121613FD90044575F003EF73
:1013A4001218BAEE75F003A42583F583EDF09000CE
:1013B40002121613FD90044675F003EF1218BAEEEC
:1013C40075F003A42583F583EDF0900832E004F072
:1013D4007094900831E004F0808C90082DE0640350
:1013E40060030215F990082F7404F0A37498F0E4D4
:1013F400A3F0A3F0C3900832E09454900831E09431
:1014040000502B90082FE0FEA3E0F5828E83E4F0D9
:10141400900832E004F07006900831E004F090087F
:1014240030E004F070CE90082FE004F080C6E49021
:101434000831F0A3F0900831E0FEA3E0FFC3941C50
:10144400EE940050611215FAFD90049875F003EFC4
:101454001218BAEE75F003A42583F583EDF090001D
:1014640001121613FD90049975F003EF1218BAEEE9
:1014740075F003A42583F583EDF090000212161392
:10148400FD90049A75F003EF1218BAEE75F003A4F8
:101494002583F583EDF0900832E004F0709790080E
:1014A40031E004F0808F90082DE0FF6003B4010563
:1014B400122AA38003122B5C9008D2E0FCA3E0FD67
:1014C400A3E0FEA3E0FF90083312187D900833E0F8
:1014D400F8A3E0F9A3E0FAA3E0FB9008D2E0FCA3B0
:1014E400E0FDA3E0FEA3E0C39BFFEE9AFEED99FDB1
:1014F400EC98FCE47B0AFAF9F8D31217D550CDE442
:10150400FFFEFC7D0C12165290082DE0600464016D
:101514007048E4900831F0A3F074A02FF5827402AF
:101524003EF583E0F5CF0FEF70010EC394A4EE9463
:10153400014003E4FEFFE5CD30E7FB75CDC0900824
:1015440032E004F07006900831E004F0900831E0D5
:10155400B401C6A3E0B4A4C1805490082DE0FD6496
:10156400026005ED64037046E4900831F0A3F07462
:10157400002FF58274003EF583E0F5CF0FEF700184
:101584000EC394A0EE94024003E4FEFFE5CD30E7E1
:10159400FB75CDC0900832E004F07006900831E08D
:1015A40004F0900831E0B402C6A3E0B4A0C19008EE
:1015B400D2E0FCA3E0FDA3E0FEA3E0FF9008331219
:1015C400187D900833E0F8A3E0F9A3E0FAA3E0FB68
:1015D4009008D2E0FCA3E0FDA3E0FEA3E0C39BFFE0
:1015E400EE9AFEED99FDEC98FCE47B1EFAF9F8D333
:0515F4001217D550CDD7
:0115F90022CF
:102AA3007E027FA49002A0E4F0A3DFFCDEFA90088C
:102AB300387404F0A374ECF0E4FEFFA3F0A3F090E9
:102AC3000838E0FCA3E0F5828C83E0FD900839E050
:102AD30004F07006900838E004F0E4FCED90083A46
:102AE30030E712E0FAA3E024A0F58274023AF583FA
:102AF30074E0F08010E0FAA3E024A0F58274023AB7
:102B0300F5837480F0ED90083A30E613E0FAA3E021
:102B130024A0F58274023AF583E0440EF08011E0BC
:102B2300FAA3E024A0F58274023AF583E04408F0A6
:102B3300ED25E025E0FD90083BE004F070069008E9
:102B43003AE004F00CEC640470920FBF00010EEF46
:082B530064694E6003022AC20E
:012B5B002257
:102B5C007E037FA0900000E4F0A3DFFCDEFA900877
:102B6C00387404F0A37444F0E4FEFFA3F0A3F090D7
:102B7C000838E0FCA3E0F5828C83E0FD900839E096
:102B8C0004F07006900838E004F0E4FCED90083A8C
:102B9C0030E712E0FAA3E02400F58274003AF583E2
:102BAC0074E0F08010E0FAA3E02400F58274003A9F
:102BBC00F5837480F0ED90083A30E613E0FAA3E068
:102BCC002400F58274003AF583E0440EF08011E0A5
:102BDC00FAA3E02400F58274003AF583E04408F08F
:102BEC00ED25E025E0FD90083BE004F07006900830
:102BFC003AE004F00CEC640470920FBF00010EEF8D
:082C0C0064A84E6003022B7B5B
:012C1400229D
:07303500EDF0A3EBF07D01BB
:10303C0043BA80ED540324D4F5CEEFB4011243A26D
:10304C00045395C35396C3C2A45395F743960822D1
:10305C00EF6402701843A20853C9EF53CAEF53B37D
:10306C00F453B4F4C2C153B3FE43B40122EFB4031E
:10307C001243A20C53B1C353B2C3C2B353B1EF4307
:10308C00B2102253A2F35391C35392C353C9EF53BB
:0B309C00CAEFC2945391F74392082240
:102D6800E4FFFE9004EC75F003EF1218BAEE75F06C
:102D780003A42583F583E4F09004ED75F003EF12C6
:102D880018BAEE75F003A42583F583E4F09004EEF9
:102D980075F003EF1218BAEE75F003A42583F583D6
:102DA800E4F00FBF00010EEF64234E70B6E4FEFF9F
:102DB80090044475F003EF1218BAEE75F003A425D9
:102DC80083F583E4F090044575F003EF1218BAEE2A
:102DD80075F003A42583F583E4F090044675F003A9
:102DE800EF1218BAEE75F003A42583F583E4F00F0B
:0A2DF800BF00010EEF64384E70B604
:012E020022AD
:082EF5004108D40F4108D5008B
:0D3AF10053938753948753937F53947F2200
:102910009008D4E020E01130830EE4FF123A899051
:1029200008D4E04401F080169008D4E030E00F2095
:10293000830CE4FF1224C89008D4E054FEF0900801
:10294000D4E0C31320E01130840E7F01123A899045
:1029500008D4E04402F080189008D4E0C31330E0BB
:102960000F20840C7F011224C89008D4E054FDF09D
:102970009008D4E01313543F20E01130850E7F02FD
:10298000123A899008D4E04404F0801A9008D4E008
:102990001313543F30E00F20850C7F021224C8909F
:1029A00008D4E054FBF09008D4E0131313541F2014
:1029B000E01030860D7F03123A899008D4E0440875
:1029C000F0229008D4E0131313541F30E00F208638
:0E29D0000C7F031224C89008D4E054F7F022C4
:10380C009008D5E0700F30870C7F04123A8990082D
:10381C00D57401F0229008D5E0B4010D20870A7F01
:0A382C00041224C8E49008D5F0222D
:102EFD0050089900FF0100010000FFFF00000100D4
:102F0D0001FF004208A90000410898004108970000
:103A400053B1BF53B2BF53B17F53B27F53B37F5310
:033A5000B47F221E
:03008E00023A40F3
:102FB200A2B7E433900893F0A2B6E433A3F09008EA
:102FC20093E0FF7008A3E07004A3F08031EF700D6E
:102FD200900894E0B40106A37401F0802190089354
:102FE200E0B4010AA3E07006A37402F08010900816
:102FF20093E0B40109A3E0B40104A37403F09008C0
:1030020098E025E025E0FF900895E0FE2FA3F0E090
:103012002499F582E43408F583E06011FD3395E0EC
:10302200FC9008AAE02DF09008A9E03CF0900898E6
:02303200EEF0BE
:013034002279
:093B33009008A9E0FEA3E0FF22C6
:10383600900897E0700F30C70C7F051224C89008D7
:10384600977401F022900897E0B4010D20C70A7F13
:0A38560005123A89E4900897F02269
:03009600023836F7
:1000A6000000000000000000002F00000000070014
:1000B600070000147F147F1400242A7F2A1200628E
:1000C600640813230036495522500000050300003A
:1000D60000001C224100000041221C000014083EC2
:1000E60008140008083E0808000000A06000000888
:1000F60008080808000060600000002010080402DC
:10010600003E5149453E0000427F40000042615199
:100116004946002141454B31001814127F10002733
:1001260045454539003C4A494930000171090503F6
:1001360000364949493600064949291E0000363627
:10014600000000005636000000081422410000148A
:100156001414141400004122140800020151090667
:1001660000324959513E007C1211127C007F4949E8
:100176004936003E41414122007F4141221C007F19
:1001860049494941007F09090901003E4149497A27
:10019600007F0808087F0000417F410000204041A1
:1001A6003F01007F08142241007F40404040007F0D
:1001B600020C027F007F0408107F003E4141413E51
:1001C600007F09090906003E4151215E007F091999
:1001D60029460046494949310001017F0101003F96
:1001E6004040403F001F2040201F003F4038403F16
:1001F600006314081463000708700807006151497A
:10020600454300007F41410000552A552A5500000C
:1002160041417F000004020102040040404040408A
:10022600000001020400002054545478007F484422
:10023600443800384444442000384444487F003859
:100246005454541800087E0901020018A4A4A47C82
:10025600007F080404780000447D4000004080844C
:100266007D00007F102844000000417F4000007C94
:1002760004180478007C08040478003844444438A0
:1002860000FC242424180018242418FC007C0804EC
:10029600040800485454542000043F444020003CC5
:1002A6004040207C001C2040201C003C4030403C4C
:1002B600004428102844001CA0A0A07C00446454DC
:1002C6004C44141414141414000000000000000020
:1002D6000000000000000000000000F80000000020
:1002E600000000333000000000100C06100C060061
:1002F600000000000000000040C07840C0784000C8
:10030600043F04043F040400007088FC0830000029
:10031600001820FF211E0000F008F000E018000081
:1003260000211C031E211E0000F00888700000003A
:100336001E2123241927211010160E00000000008C
:100346000000000000000000000000E018040200A9
:10035600000000071820400000020418E00000001A
:100366000040201807000000404080F08040400018
:100376000202010F01020200000000F0000000006E
:100386000101011F01010100000000000000000042
:1003960080B07000000000000000000000000000B7
:1003A6000001010101010101000000000000000040
:1003B60000303000000000000000000080601804DB
:1003C600006018060100000000E010080810E000B8
:1003D600000F102020100F00001010F80000000081
:1003E6000020203F202000000070080808887000C8
:1003F6000030282422213000003008888848300048
:100406000018202020110E000000C02010F8000067
:1004160000070424243F240000F808888808080000
:100426000019212020110E0000E010888818000015
:10043600000F112020110E0000380808C8380800E7
:100446000000003F00000000007088080888700067
:10045600001C222121221C0000E010080810E000E8
:100466000000312222110F00000000C0C000000071
:100476000000003030000000000000800000000096
:10048600000080600000000000008040201008008E
:100496000001020408102000404040404040400057
:1004A6000404040404040400000810204080000032
:1004B6000020100804020100007048080808F00037
:1004C6000000003036010000C030C828E810E00007
:1004D6000718272423140B000000C038E000000092
:1004E600203C23020227382008F8888888700000FC
:1004F600203F202020110E00C030080808083800D0
:10050600071820202010080008F808080810E00046
:10051600203F202020100F0008F88888E8081000E7
:10052600203F20202320180008F88888E8081000BB
:10053600203F200003000000C030080808380000F3
:1005460007182020221E020008F808000008F808F4
:10055600203F210101213F20000808F8080800007B
:100566000020203F2020000000000808F8080800AE
:10057600C08080807F00000008F888C02818080026
:10058600203F20012638200008F80800000000005F
:10059600203F20202020300008F8F800F8F8080056
:1005A600203F003F003F200008F830C00008F80850
:1005B600203F200007183F00E01008080810E00060
:1005C6000F10202020100F0008F808080808F00077
:1005D600203F210101010000E01008080810E0009A
:1005E6000F18242438504F0008F88888888870002F
:1005F600203F2000030C30200070880808083800CF
:100606000038202121221C00180808F808081800C4
:100616000000203F2000000008F808000008F80845
:10062600001F202020201F000878880000C83808F6
:10063600000007380E010000F80800F80008F8006E
:10064600033C0700073C0300081868808068180808
:1006560020302C03032C30200838C800C838080086
:100666000000203F2000000010080808C8380800D5
:100676002038262120201800000000FE0202020079
:100686000000007F40404000000C30C00000000029
:10069600000000010638C00000020202FE00000051
:1006A600004040407F0000000000040202020400F7
:1006B6000000000000000000000000000000000034
:1006C600808080808080808000020204000000001C
:1006D6000000000000000000000080808080000014
:1006E6000019242222223F2008F800808000000002
:1006F600003F112020110E000000008080800000C5
:10070600000E112020201100000000808088F800D3
:10071600000E112020103F20000080808080000005
:10072600001F222222221300008080F08888881869
:100736000020203F20200000000080808080800074
:10074600006B94949493600008F800808080000009
:10075600203F210000203F200080989800000000E4
:100766000020203F20200000000000809898000014
:1007760000C08080807F000008F800008080800034
:10078600203F24022D302000000808F80000000059
:100796000020203F20200000808080808080800014
:1007A600203F20003F20003F8080008080800000A6
:1007B600203F210000203F20000080808080000034
:1007C600001F202020201F00808000808000000065
:1007D60080FFA12020110E00000000808080800094
:1007E600000E112020A0FF80808080008080800085
:1007F60020203F21200001000000808080808000B2
:100806000033242424241900008080E08080000026
:100816000000001F20200000808000000080800073
:10082600001F202020103F208080800000808080D4
:1008360000010E3008060100808000800080808064
:100846000F300C030C300F00008080008080800089
:100856000020312E0E3120008080800000808080B4
:1008660080818E7018060100008080808080800064
:100876000021302C2221300000000000807C020282
:1008860000000000003F404000000000FF000000A4
:1008960000000000FF0000000002027C8000000053
:1008A6000040403F0000000000060101020204046F
:1008B600000000000000000002E22222222222FEA6
:1008C6002222222222E2020000FF00000912007FFB
:1008D60000091240807F00002030AC63308040B0B9
:1008E6008E808087986080002267221212804030B6
:1008F6000F0040807F0000002030AC63308040B0A5
:100906008E80808798608000226722121280403095
:100916000F0040807F0000000000FF000000FE8204
:100926008282828282FE00000000FF0000007F209B
:1009360020202020207F0000101010FF10105020D3
:10094600D8171010F0101000007F2121217F804061
:1009560021160816214080000000FE92929292FE17
:1009660092929292FE000000404044444444447FE8
:100976004444444444404000040404E4A4AFA4A412
:10098600A4AFA4E4040404000808080B0A0A0AFE3B
:100996000A0A0A0B080808000010101010D030FFD1
:1009A60030D010101010000010080402010000FFE3
:1009B60000000102040810001060028C000E2212D2
:1009C6000AC20A12220E000004047E012021110927
:1009D60005FF05091121200020242424FE232220BE
:1009E60020FF20222CA02000000848847F024140DE
:1009F60020130C142241F80000FC0404FC0000FC47
:100A0600444444C243424000000F04040F80601F68
:100A1600000000FF0000000000F8011210F2525220
:100A260052F2121202FE000000FF0008080F090928
:100A3600097F0444807F0000008060F8074020188A
:100A46000F08C80808281800010000FF00100C0352
:100A560040807F00010618001010F01F10F00040C3
:100A6600E05847405060C00040221508162100009B
:100A7600FE42424242FE00002030AC633020101895
:100A8600A744A4140C0000002267221212020121BE
:100A9600244448910102020080808080808080800A
:100AA60080808080808080000000000000000000C0
:100AB600000000000000000080804020100804C3F1
:100AC600040810204080800000000000000000FFA5
:100AD6000000000000000000000000000000C03F11
:100AE600C000000000000000804020100C03000041
:080AF60000030C1020408000F9
:100046009008D9EFF07006FD7FA61237299008D9DF
:0C005600E0B40107E4FD7FA71237292267
:103860009008DAEFF0700DFD7FC8123729E4FD7F74
:10387000A11237299008DAE0B4010EE4FD7FC012EE
:0A3880003729E4FD7FA0123729224A
:10371800F583E5822FF582E5833EF583E493FF7D0B
:01372800019F
:1037290090083FEFF0ED7B017A08793F90084560FA
:10373900077401F07D4080057401F0E4FD7F781283
:0337490036E12244
:07377F00E0FFA3E0FD04F0F0
:1037860090083EEFF0ED24B0FFE4FD1237299008D3
:103796003EE054F0C4540F4410FFE4FD1237299064
:0B37A600083EE0540FFFE4FD0237294D
:10397D00E4FD7F8D123729E4FD7F14123729E4FD14
:05398D007FAF023729A5
:10399200E4FD7F8D123729E4FD7F10123729E4FD03
:0539A2007FAE02372991
:10348E00E490082DF090082DE0FFC394085036EF1D
:10349E0024B0FFE4FD123729E4FDFF123729E4FDC5
:1034AE007F10123729E490082EF07D01E4FF1237C9
:1034BE002990082EE004F0E0C3948040ED90082D92
:0534CE00E004F080C0E5
:0134D30022D6
:08266500900834EFF0A3EDF042
:10266D00E4900838F0900837E0FFC313FD90083967
:10267D00F0E4A3F0A3F0EFB40809A3E4F0A374060B
:10268D00F08031900837E0FF131313541FF5827556
:10269D008300EF54077E0060047F0180027F00EF0E
:1026AD002582FFEE3583FE7C0012165290083CEE1B
:1026BD00F0A3EFF0EB24E0900838F0900834E0FF41
:1026CD00A3E0FD123786E490083AF0A3F090083CA1
:1026DD00E0FCA3E0FD90083AE0FEA3E0FFC39DEE11
:1026ED009C5070900839E0FD7C00121664ED4C7022
:1026FD000E900837E06408600690083412377F901A
:10270D000837E0B4081A90083AE0FEA3E0FF9008FD
:10271D0038E075F006A424A6F582E5F03400801F9C
:10272D00900837E0B4102C90083AE0FEA3E0FF903B
:10273D000838E075F010A424CEF582E5F0340212CD
:10274D00371890083BE004F0700690083AE004F06A
:03275D000226DA77
:012760002256
:073914009008DBEFF0A905AC
:10391B007F017E00AD0119ED600C9008DBE0FD7CB2
:06392B000012165280EEAE
:013931002273
:0E2761009008B6EFF0A3EDF0A3EAF0A3EBF0C2
:10276F00E49008BEF0A3F09008BBE0B40806900810
:10277F00BE7402F0E49008BCF09008BAE0FF900835
:10278F00BCE0FEC39F400302283BC3EF9E14FD7FB6
:10279F000A1239149008B8E0FCA3E0FDCFCDCFCEDC
:1027AF00CCCE1216647C007D0A1216649008BDED23
:1027BF00F09008BFE0703C9008BAE014FF9008BC9E
:1027CF00E0FEC39F502DA3E070239008BBE0FCC335
:1027DF0013FF9008BEE02F8EF0A4FF9008B6E02FF5
:1027EF00FFA3E0FD900837ECF07B2080339008BF0B
:1027FF007401F09008BBE0FEC313FF9008BEE02FFA
:10280F00FF9008BCE0FDEF8DF0A4FF9008B6E02F1D
:10281F00FFA3E0FD9008BDE02430FB900837EEF0F9
:0C282F001226659008BCE004F002278827
:01283B00227A
:1030A70090082DEFF0A3EDF0A3EBF0A3EAF0A3E96E
:0130B700F028
:1030B800E4900833F090082FE0FBA3E0FAA3E0F9CE
:1030C800900833E0F582758300121613604090086B
:1030D8002DE0FFA3E0FD900833E0FE04F08E82753A
:1030E8008300121613FB900832E0900837F012267E
:1030F80065900832E0FFB4080990082DE02406F036
:0E31080080B3EFC313FF90082DE02FF080A7D7
:013116002296
:0B2CCB009008C0EFF0A3EDF0A3EBF0C9
:102CD600A3E0FF131313541FFD7C00EF54077E007F
:102CE60060047F0180027F00EF2DFFEE3CFE90081E
:102CF600C3E0FD7C001216529008C6EEF0A3EFF07A
:102D0600E49008C4F0A3F09008C6E0FCA3E0FD90B0
:102D160008C4E0FEA3E0FFC39DEE9C50449008C3A8
:102D2600E0FD7C00121664ED4C70069008C0123768
:102D36007F9008C3E0B41029A3E0FEA3E0FF90084B
:102D4600C2E075F020A424BEF582E5F034081237FF
:102D5600189008C5E004F070AE9008C4E004F08056
:012D6600A6C6
:012D67002249
:0B2E03009008ABEFF0A3EDF0A3EBF0A4
:102E0E00E49008B2F0A3F09008AEE0FF1313135451
:102E1E001FFEEF540760047F0180027F00EE2F90AB
:102E2E0008AEF0E49008B4F09008AEE0FF9008B45D
:102E3E00E0FEC39F50519008ABE0FFA3E0FDEE2DE6
:102E4E00FD123786E49008B5F09008ADE0FF9008CB
:102E5E00B5E0C39F50299008AFE0FBA3E0FAA3E0D2
:102E6E00F9A3E475F0011216B985F082F5831216F6
:102E7E0013FF7D011237299008B5E004F080CA9047
:072E8E0008B4E004F080A18C
:012E9500221A
:1029DE00E4FD7FAE123729E4FDFF123729E4FD7FB7
:1029EE0010123729E4FD7F40123729E4FD7F811252
:1029FE003729E4FD7FCF123729E4FD7FA112372955
:102A0E00E4FD7FC8123729E4FD7FA6123729E4FDC5
:102A1E007FA8123729E4FD7F3F123729E4FD7FD3CB
:102A2E00123729E4FDFF123729E4FD7FD51237292D
:102A3E00E4FD7F80123729E4FD7FD9123729E4FDAA
:102A4E007FF1123729E4FD7FDA123729E4FD7F1278
:102A5E00123729E4FD7FDB123729E4FD7F40123760
:102A6E0029E4FD7F20123729E4FD7F02123729E485
:102A7E00FD7F8D123729E4FD7F14123729E4FD7F87
:102A8E00A4123729E4FD7FA612372912348EE4FDF5
:052A9E007FAF023729A3
:1036A000E4900831F0FBFDFF121D509008317402C8
:1036B000F07B01E4FDFF121D509008317404F07B93
:1036C00002E4FDFF121D509008317406F07B03E404
:1036D000FDFF121D50E4900831F07B04FDFF021D38
:0136E0005099
:10311700E4900831F0FB7D01FF121D5090083174D7
:1031270001F0FBFDE4FF121D509008317402F0FB23
:103137007D01E4FF121D509008317403F0FB7D01FF
:10314700E4FF121D509008317404F0FB7D01E4FF89
:10315700121D509008317405F0FB7D01E4FF121D2C
:0F316700509008317406F0FB7D01E4FF021D500B
:0E3AD600E4900831F07B047D027F01021D5058
:093B3C007B077D037F010211519A
:103A5300454331315F476574436F756E743A202572
:033A6300640A00F2
:1039A700123B33900830EEF0A3EFF07BFF7A3A79C1
:0439B70053021A5647
:0C3B0A004B45595B25645D2055500A00B6
:082F1D004108D6044108D70762
:063B5A0012291002380CD4
:1024C80090082DEFF070519008D6E014F0E0C39416
:1024D8000450037404F09008D6E0D3941B400374AE
:1024E8001BF09008D6E0FBA3E0900831F0E4FDFF74
:1024F800121D509008D6E004FB9008317407F07D57
:10250800027F01121D509008D6E0FBA3E09008312D
:10251800F07D027F01121D5090082DE06402705179
:102528009008D6E004F0E0C3940450037404F090DB
:1025380008D6E0D3941B4003741BF09008D6E0FB48
:10254800A3E0900831F0E4FDFF121D509008D6E09A
:1025580014FB9008317407F07D027F01121D509022
:1025680008D6E0FBA3E0900831F07D027F01121D40
:102578005090082DE0640170419008D7E004F0E025
:10258800C36480948050037406F09008D7E0D36445
:102598008094864002E4F09008D6E0FBA3E090081F
:1025A80031F0E4FDFF121D509008D6E0FBA3E09047
:1025B8000831F07D027F01121D5090082DE0640360
:1025C80070419008D7E014F0E0C364809480500311
:1025D8007406F09008D7E0D3648094864002E4F053
:1025E8009008D6E0FBA3E0900831F0E4FDFF121D4F
:1025F800509008D6E0FBA3E0900831F07D027F01FF
:10260800121D5090082DE0640570519008D6E00422
:10261800F0E0C3940450037404F09008D6E0D39417
:102628001B4003741BF09008D6E0FBA3E090083130
:10263800F0E4FDFF121D509008D6E014FB9008311D
:102648007407F07D027F01121D509008D6E0FBA3AD
:0D265800E0900831F07D027F01121D50223C
:103A89007BFF7A3B790A900830E4F0A3EFF0021A41
:013A990056D6
:03009E00020096C7
:0100120022CB
:1038AD004C6576656C3A00437572526F756E643A6D
:1038BD0000437572506F733A00437572436F6C6FAE
:0338CD00723A004C
:103368007BFF7A3879AD9008327410F0E4FDFF12D3
:1033780030A77BFF7A3879B49008327410F07D0258
:10338800E4FF1230A77BFF7A3879BE9008327410B8
:10339800F07D04E4FF1230A77BFF7A3879C69008E5
:0B33A800327410F07D06E4FF0230A735
:03000000022F26A6
:0C2F2600787FE4F6D8FD758121022F6D44
:1015FA00BB010689828A83E0225002E722BBFE02EF
:09160A00E32289828A83E4932221
:10161300BB010CE58229F582E5833AF583E022508C
:1016230006E92582F8E622BBFE06E92582F8E222D6
:0D163300E58229F582E5833AF583E49322F0
:10164000BB010689828A83F0225002F722BBFE0189
:02165000F32283
:10165200EF8DF0A4A8F0CF8CF0A428CE8DF0A42EAC
:02166200FE2266
:10166400BC000BBE0029EF8DF084FFADF022E4CC6A
:10167400F875F008EF2FFFEE33FEEC33FCEE9DEC33
:10168400984005FCEE9DFE0FD5F0E9E4CEFD22ED79
:10169400F8F5F0EE8420D21CFEADF075F008EF2FC3
:1016A400FFED33FD4007985006D5F0F222C398FDB4
:0516B4000FD5F0EA2251
:1016B900A3F8E0C5F025F0F0E582158270021583E4
:0616C900E0C838F0E82241
:1016CF00BB0110E58229F582E5833AF583E0F5F059
:1016DF00A3E0225009E92582F886F008E622BBFE36
:1016EF000AE92582F8E2F5F008E222E5832AF5837C
:0816FF00E993F5F0A3E9932241
:1017070075F008758200EF2FFFEE33FECD33CDCC99
:1017170033CCC58233C5829BED9AEC99E58298401C
:101727000CF582EE9BFEED9AFDEC99FC0FD5F0D6F9
:10173700E4CEFBE4CDFAE4CCF9A88222B800C1B923
:101747000059BA002DEC8BF084CFCECDFCE5F0CB61
:10175700F97818EF2FFFEE33FEED33FDEC33FCEB9A
:1017670033FB10D703994004EB99FB0FD8E5E4F955
:10177700FA227818EF2FFFEE33FEED33FDEC33FC42
:10178700C933C910D7059BE99A4007EC9BFCE99A36
:10179700F90FD8E0E4C9FAE4CCFB2275F010EF2F7B
:1017A700FFEE33FEED33FDCC33CCC833C810D7077B
:1017B7009BEC9AE899400AED9BFDEC9AFCE899F8B6
:0E17C7000FD5F0DAE4CDFBE4CCFAE4C8F92249
:1017D500EB9FF5F0EA9E42F0E99D42F0E89C45F06A
:0117E50022E1
:1017E600E8600FECC313FCED13FDEE13FEEF13FFE1
:0317F600D8F12205
:1017F900BB010DE58229F582E5833AF583021908D3
:101809005007E92582F80218FCBBFE07E92582F892
:10181900021914E58229F582E5833AF58302192034
:10182900BB010DE58229F582E5833AF58302187D2E
:101839005007E92582F8021966BBFE07E92582F8F7
:0418490002197222EC
:10184D00BB010DE58229F582E5833AF58302193D49
:10185D005007E92582F8021930BBFE07E92582F809
:10186D00021949E58229F582E5833AF58302195675
:0C187D00ECF0A3EDF0A3EEF0A3EFF022DE
:10188900A8828583F0D083D0821218A01218A012E2
:1018990018A01218A0E473E493A3C583C5F0C58307
:1018A900C8C582C8F0A3C583C5F0C583C8C582C8A9
:0118B900220C
:0C18BA00A42582F582E5F03583F5832239
:1018C600BB010DE58229F582E5833AF58302198786
:1018D6005007E92582F802197EBBFE07E92582F842
:1018E6000219B0E58229F582E5833AF5830219B932
:0618F6008A838982E4737D
:1019EB00E5082430F582E43408F583E005082290FD
:1019FB00082D300703900830E475F001121990029E
:101A0B0015FA2000E97F2ED2008018EF540F249096
:101A1B00D43440D4FF30040BEF24BFB41A0050036E
:101A2B002461FFE50960021509050CE50C70020540
:101A3B000B30070E90082DE475F001121990EF0290
:101A4B0016400200067403D2078003E4C207F508B0
:101A5B0090082D1219A7E4F509F50BF50CE50960B3
:101A6B00077F20121A2E80F5750AFFC201C200C231
:101A7B0002C203C205C206C2081219FAFF700D306A
:101A8B0007057F00121A3FAF0CAE0B22B4255FC2C5
:101A9B00D5C2041219FAFF24D0B40A00501A75F0FB
:101AAB000A780930D50508B6FF0106C6A426F6202C
:101ABB00D5047002D20380D924CFB41A00EF50049E
:101ACB00C2E5D204021C40D20180C6D20080C0D233
:101ADB000280BCD2D580BAD20580B47F20121A2ED8
:101AEB002002077401B5090040F11219EBFF121A1D
:101AFB002E021A68D208D20680951219EBFB121926
:101B0B00EBFA1219EBF94A4B700679117A1D7BFF30
:101B1B0020022EE509602A7E008E82758300121644
:101B2B001360060EEE650A70F0C2D5EBC0E0EAC09A
:101B3B00E0E9C0E0EE121C87D0E0F9D0E0FAD0E08B
:101B4B00FB1215FAFF60AAEBC0E0EAC0E0E9C0E0C7
:101B5B00121A2ED0E02401F9D0E03400FAD0E0FBC9
:101B6B00E50A0460DCD50AD980877BFF7A1C798370
:101B7B00D202809C791080027908C206C2088008C4
:101B8B00D2D5790A8004790AC2D5E50A047002F528
:101B9B000AE4FAFDFEFF1219EBFC7B08200113127D
:101BAB0019EBFD7B1030000A1219EBFE1219EBFF3B
:101BBB007B20EC3382D592D55013C3E43000069FC3
:101BCB00FFE49EFEE42001039DFDE49CFCE4CBF8C6
:101BDB00C201EC700CCFCECDCCE824F8F870F380BA
:101BEB0017C3EF33FFEE33FEED33FDEC33FCEB337A
:101BFB00FB994002FB0FD8E9EB300105F8D0E0C4AC
:101C0B0048B201C0E00AEC4D4E4F78207B0070C209
:101C1B00EAB50A0040BCC0E0121C89D0F0D0E0202D
:101C2B000104C4C0E0C4B201C0F0121A17D0F0D541
:101C3B00F0EB021A681219C51B05531B7F581AD6F5
:101C4B004C1AD2421B834F1B8B441B8B491AEB4301
:081C5B001B91551B75461B751A
:101C6300451B75471D31501ADA2D1ADE2E1B012B29
:101C73001AE2231AFF201D1A2A1A9A4800001AF999
:101C83003F3F3F00790AA2D5200314300509B9105C
:101C9300020404B9080104A2D5200602500104205D
:101CA30002689202B509005034C0E07F2030031966
:101CB3007F30A20272067205500F121CE0C202C2EC
:101CC30006C205C2087F30800F300503E9C0E01269
:101CD3001A2E300503D0E0F9D0E0B509CC30051752
:101CE3007F30B9100C121A2E7F583004077F78808A
:101CF30003B90803121A2E3002057F2D021A2E7F14
:101D0300202008F87F2B2006F322920280CF286E32
:101D1300756C6C2900D2011219EB3001F8C20178FD
:101D23000930D50108F6021A9A2D50434958121961
:101D3300EB2403B405004001E4901D2C93121A1FF9
:0D1D4300743A121A1FD203750904021B7FA7
:102F32000234D4E493A3F8E493A34003F68001F2AD
:102F420008DFF48029E493A3F85407240CC8C333A0
:102F5200C4540F4420C8834004F456800146F6DF6F
:102F6200E4800B0102040810204080902E96E47E3B
:102F7200019360BCA3FF543F30E509541FFEE49364
:102F8200A360010ECF54C025E060A840B8E493A32B
:102F9200FAE493A3F8E493A3C8C582C8CAC583CA56
:102FA200F0A3C8C582C8CAC583CADFE9DEE780BE0E
:012F250000AB
:0C18FC00E6FC08E6FD08E6FE08E6FF2218
:0C190800E0FCA3E0FDA3E0FEA3E0FF2252
:0C191400E2FC08E2FD08E2FE08E2FF220F
:10192000E493FC740193FD740293FE740393FF220D
:0D193000E6FB08E6F908E6FA08E6CBF82227
:0C193D00E0F8A3E0F9A3E0FAA3E0FB222D
:0D194900E2FB08E2F908E2FA08E2CBF8221E
:10195600E493F8740193F9740293FA740393FB22E7
:0C196600ECF608EDF608EEF608EFF622AD
:0C197200ECF208EDF208EEF208EFF222B1
:09197E00E6FB08E6FA08E6F9228E
:09198700E0FBA3E0FAA3E0F92261
:10199000F8E0FBA3A3E0F925F0F0E58215827002E0
:0719A0001583E0FA38F02284
:0919A700EBF0A3EAF0A3E9F02241
:0919B000E2FB08E2FA08E2F92268
:0C19B900E493FB740193FA740293F9228A
:1019C500D083D082F8E4937012740193700DA3A3B1
:1019D50093F8740193F5828883E4737402936860C5
:0619E500EFA3A3A380DFC5
:00000001FF
