:104CA700205541525420496E6974205375636365DA
:104CB70073732021200A002057533238313220499C
:104CC7006E6974202021200A0020493243204F4C6E
:0D4CD700454420496E6974202021200A0008
:053818004209630000FD
:104FF60043B10443B20443B10843B20853C9F7436B
:03500600CA0822B3
:104DEB0090082D7440F0A37401F0A3121D970001DD
:104DFB00C2009008347401F0E4A3F07B017A0879C7
:104E0B002D7F011213BF7D037F01124B6253A23F13
:014E1B002274
:104E1C00E490082DF0A304F0E4A3F0A374A2F0A393
:104E2C007440F09008337401F0FB7A08792DE4FF9C
:0A4E3C00122D05E4FD7F01024BA3D7
:03000B00024A485E
:104A4800C0E0C0F0C083C082C0D075D000C000C034
:104A580001C002C003C004C005C006C007124077E9
:104A6800900964E004F07006900963E004F0D00750
:104A7800D006D005D004D003D002D001D000D0D0C9
:094A8800D082D083D0F0D0E032DE
:104CE40043BA80124FF6124DEB124E1C125144D2AD
:104CF400AF7BFF7A4C79A712271C12412D7BFF7AD8
:104D04004C79BE12271C120AFE7BFF7A4C79D01212
:074D1400271C1247B880FBC9
:102F6C00EFD3940740037FFF22121B08FED3940378
:102F7C0040037FFF22EF7041EE700B900001121B9B
:102F8C0021F452935294121B08B4010B90000112BD
:102F9C001B214293F45294121B08FEB4020A9000B7
:102FAC0001121B2142934294EEB4030D90000112C6
:102FBC001B21FEF45293EE4294EF64017043121BFA
:102FCC0008FE700B900001121B21F452915292EEEC
:102FDC00B4010B900001121B214291F45292121B6E
:102FEC0008B4020A900001121B2142914292121B5A
:102FFC0008B4030D900001121B21FEF45291EE4215
:10300C0092EF64027043121B08FE700B90000112C9
:10301C001B21F452955296EEB4010B900001121B39
:10302C00214295F45296121B08B4020A9000011228
:10303C001B2142954296121B08B4030D90000112FD
:10304C001B21FEF45295EE4296EF64037043121B63
:10305C0008FE700B900001121B21F452B152B2EE1B
:10306C00B4010B900001121B2142B1F452B2121B9D
:10307C0008B4020A900001121B2142B142B2121B89
:10308C0008B4030D900001121B21FEF452B1EE4264
:10309C00B2EF64047043121B08FE700B9000011217
:1030AC001B21F452B352B4EEB4010B900001121B6D
:1030BC002142B3F452B4121B08B4020A900001125C
:1030CC001B2142B342B4121B08B4030D9000011231
:1030DC001B21FEF452B3EE42B4EF64057043121B95
:1030EC0008FE700B900001121B21F452C952CAEE5B
:1030FC00B4010B900001121B2142C9F452CA121BDD
:10310C0008B4020A900001121B2142C942CA121BC8
:10311C0008B4030D900001121B21FEF452C9EE42BB
:10312C00CAEF64067043121B08FE700B900001126C
:10313C001B21F452CB52CCEEB4010B900001121BAC
:10314C002142CBF452CC121B08B4020A900001129B
:10315C001B2142CB42CC121B08B4030D9000011270
:10316C001B21FEF452CBEE42CCEF64077043121BD2
:10317C0008FF700B900001121B21F452E152E2EF98
:10318C00B4010B900001121B2142E1F452E2121B1C
:10319C0008B4020A900001121B2142E142E2121B08
:1031AC0008B4030D900001121B21FFF452E1EF4211
:0431BC00E27F00228C
:1013BF00900837EBF0A3EAF0A3E9F0900836EFF0CE
:1013CF006401600302159D900555F0A3F0A3F0A3EF
:1013DF00F0A3F090083AF0A3F090083AE0FEA3E0F3
:1013EF00FFC39480EE9400501C74A92FF5827406ED
:1013FF003EF583E4F090083BE004F070DC90083A8F
:10140F00E004F080D4E490083AF0A3F090083AE0BA
:10141F00FEA3E0FFC39480EE9400501C74692FF577
:10142F008274053EF583E4F090083BE004F070DC35
:10143F0090083AE004F080D4900837E0FBA3E0FA7C
:10144F00A3E0F9121B08FFE598543F4FF598EF649E
:10145F00C06008EF64406003021548900002121D3F
:10146F005B7F807E8D7D5B7C00121C5190083C124F
:10147F001D8BE4FFFE7D01FC90083CE0F8A3E0F932
:10148F00A3E0FAA3E0FBC3121CE340037FFF22900B
:10149F00083CE0F8A3E0F9A3E0FAA3E0FBC3E49B68
:1014AF00FFE49AFE740199FDE498FC90083C121D2C
:1014BF008B900837E0FBA3E0FAA3E0F9900001124C
:1014CF001B21FB64017038C28E538EFE5389BF53AC
:1014DF0089CF438E4090083CE0FCA3E0FDA3E0FEE3
:1014EF00A3E0FF7808121CF48F8D90083CA3A3A3F0
:1014FF00E0F58BC2AB5389BF538FFDD28E8073EB58
:10150F0064027032538EEF438E01538EF7438E0475
:10151F0090083CE0FCA3E0FDA3E0FEA3E0FF780809
:10152F00121CF48FD690083CA3A3A3E0F5D753AFBA
:10153F00FB438E10803C7FFF22900837E0FBA3E037
:10154F00FAA3E0F9121B08FF7013900008121B2179
:10155F00B40105438E20801A538EDF8015EFB480BF
:10156F0011900008121B21B401054387808003539B
:10157F00877F900837E0FBA3E0FAA3E0F99000071C
:10158F00121B217004C29C8002D29C7F0022900803
:10159F0036E0640260030216E790055AF0A3F0A349
:1015AF00F0A3F0A3F090083AF0A3F090083AE0FE11
:1015BF00A3E0FFC39480EE9400501C74492FF58272
:1015CF0074073EF583E4F090083BE004F070DC9084
:1015DF00083AE004F080D4E490083AF0A3F09008C1
:1015EF003AE0FEA3E0FFC39480EE9400501C74E930
:1015FF002FF58274053EF583E4F090083BE004F08C
:10160F0070DC90083AE004F080D4900837E0FBA338
:10161F00E0FAA3E0F9121B08FF64C06008EF644012
:10162F0060030216C5EFB4C005439A808003539A36
:10163F007F900002121D5B7F807E8D7D5B7C001290
:10164F001C5190083C121D8BE4FFFE7D01FC90089D
:10165F003CE0F8A3E0F9A3E0FAA3E0FBC3121CE31C
:10166F0040037FFF2290083CE0F8A3E0F9A3E0FAE3
:10167F00A3E0FBC3E49BFFE49AFE740199FDE49899
:10168F00FC90083C121D8B538EEF538EF7438E0444
:10169F0090083CE0FCA3E0FDA3E0FEA3E0FF780888
:1016AF00121CF48FD690083CA3A3A3E0F5D753AF39
:1016BF00FB438E1080037FFF22900837E0FBA3E0EF
:1016CF00FAA3E0F9900007121B21C454F0FFE59A2A
:1016DF0054EF4FF59A7F0022900836E064036003C1
:1016EF0002187B90055FF0A3F0A3F0A3F0A3F09096
:1016FF00083AF0A3F090083AE0FEA3E0FFC394404D
:10170F00EE9400501C74C92FF58274073EF583E4E4
:10171F00F090083BE004F070DC90083AE004F080B1
:10172F00D4E490083AF0A3F090083AE0FEA3E0FF6B
:10173F00C39440EE9400501C74692FF58274063EDA
:10174F00F583E4F090083BE004F070DC90083AE099
:10175F0004F080D4900837E0FBA3E0FAA3E0F9127D
:10176F001B08FF64C06008EF64406003021859EF64
:10177F00B4C00543AC80800353AC7F900002121DB0
:10178F005B7F807E8D7D5B7C00121C5190083C122C
:10179F001D8BE4FFFE7D01FC90083CE0F8A3E0F90F
:1017AF00A3E0FAA3E0FBC3121CE340037FFF2290E8
:1017BF00083CE0F8A3E0F9A3E0FAA3E0FBC3E49B45
:1017CF00FFE49AFE740199FDE498FC90083C121D09
:1017DF008B900837E0FBA3E0FAA3E0F99000011229
:1017EF001B21FB6403702943AC4090083CE0FCA331
:1017FF00E0FDA3E0FEA3E0FF7808121CF48FD49065
:10180F00083CA3A3A3E0F5D553D1F043D10A803D03
:10181F00EB64027032538EEF53ACBF538EF7438E8F
:10182F000490083CE0FCA3E0FDA3E0FEA3E0FF78FA
:10183F0008121CF48FD690083CA3A3A3E0F5D7534E
:10184F00AFFB438E1080067FFF227FFF2290083769
:10185F00E0FBA3E0FAA3E0F9900007121B21C454A8
:10186F00F0FFE5AC54EF4FF5AC7F0022900836E067
:10187F0064046003021A0F900564F0A3F0A3F0A3B1
:10188F00F0A3F090083AF0A3F090083AE0FEA3E03E
:10189F00FFC39420EE9400501C74092FF582740836
:1018AF003EF583E4F090083BE004F070DC90083ADA
:1018BF00E004F080D4E490083AF0A3F090083AE006
:1018CF00FEA3E0FFC39420EE9400501C74292FF563
:1018DF008274073EF583E4F090083BE004F070DC7F
:1018EF0090083AE004F080D4900837E0FBA3E0FAC8
:1018FF00A3E0F9121B08FF64C06008EF64406003A7
:10190F000219EDEFB4C005438480800353847F90A8
:10191F000002121D5B7F807E8D7D5B7C00121C514F
:10192F0090083C121D8BE4FFFE7D01FC90083CE00B
:10193F00F8A3E0F9A3E0FAA3E0FBC3121CE3400312
:10194F007FFF2290083CE0F8A3E0F9A3E0FAA3E0C0
:10195F00FBC3E49BFFE49AFE740199FDE498FC90AD
:10196F00083C121D8B900837E0FBA3E0FAA3E0F9C7
:10197F00900001121B21FB640470294384409008DE
:10198F003CE0FCA3E0FDA3E0FEA3E0FF7808121CFF
:10199F00F48FD290083CA3A3A3E0F5D353D10F4308
:1019AF00D1A0803DEB64027032538EEF5384BF534E
:1019BF008EF7438E0490083CE0FCA3E0FDA3E0FE0D
:1019CF00A3E0FF7808121CF48FD690083CA3A3A3C2
:1019DF00E0F5D753AFFB438E1080067FFF227FFFCA
:1019EF0022900837E0FBA3E0FAA3E0F9900007127A
:1019FF001B21C454F0FFE58454EF4FF5847F002280
:021A0F007FFF57
:011A110022B2
:0F509F008F999005577401F0900557E070FA2231
:10500900121B08FF600C12509F740129F9E43AFA47
:0350190080EE2204
:0F50AE008F9B90055C7401F090055CE070FA2216
:10501C00121B08FF600C1250AE740129F9E43AFA25
:03502C0080EE22F1
:0F50BD008FAD9005617401F0900561E070FA22EB
:10502F00121B08FF600C1250BD740129F9E43AFA03
:03503F0080EE22DE
:0F50CC008F859005667401F0900566E070FA22FA
:10504200121B08FF600C1250CC740129F9E43AFAE1
:0350520080EE22CB
:05000600AE0702509F4F
:104B6200EFD3940140037FFF22EDD3940340037FF0
:104B7200FF22EF7004C2AC8002D2ACED700553B7D5
:104B8200EFC2BCEDB4010553B7EFD2BCEDB40205E0
:104B920043B710C2BCEDB4030543B710D2BC7F00CB
:014BA20022F0
:104B1F00EFD3940140037FFF22EDD3940340037F33
:104B2F00FF22E5AF54FE4FF5AFED700653B6FE53BF
:104B3F00B5FEEDB4010653B6FE43B501EDB4020662
:104B4F0043B60153B5FEEDB4030643B60143B501B9
:034B5F007F0022B2
:1049FE00EFD3940140037FFF22EDD3940340037F56
:104A0E00FF22EF33333354F8FFE5AF54F74FF5AFD2
:104A1E00ED700653EEFE53DFFEEDB4010653EEFECF
:104A2E0043DF01EDB4020643EE0153DFFEEDB403A6
:0A4A3E000643EE0143DF017F002272
:104A9100EFD3940140037FFF22EDD3940340037FC2
:104AA100FF22EFC454F0FFE5AF54EF4FF5AFED70C7
:104AB1000653EEFD53DFFDEDB4010653EEFD43DF7A
:104AC10002EDB4020643EE0253DFFDEDB4030643EB
:084AD100EE0243DF027F002228
:030023000249B2DD
:1049B200C0E0C083C082C0D075D000C00730982745
:1049C200C298900558E0C394804002E4F0900558E4
:1049D200E0FF04F074692FF582E43405F583E5996C
:1049E200F09005597405F0309907C299900557E483
:0C49F200F0D007D0D0D082D083D0E032CB
:0300430002486A06
:10486A00C0E0C083C082C0D075D000C007E59A30CE
:10487A00E028539AFE90055DE0C394804002E4F07C
:10488A0090055DE0FF04F074E92FF582E43405F544
:10489A0083E59BF090055E7405F0E59A30E10853D4
:1048AA009AFD90055CE4F0D007D0D0D082D083D0B6
:0248BA00E032EA
:03008B000248BC6C
:1048BC00C0E0C083C082C0D075D000C007E5AC306A
:1048CC00E02853ACFE900562E0C394404002E4F053
:1048DC00900562E0FF04F074692FF582E43406F56C
:1048EC0083E5ADF09005637405F0E5AC30E1085359
:1048FC00ACFD900561E4F0D007D0D0D082D083D04D
:02490C00E03297
:0300930002490E11
:10490E00C0E0C083C082C0D075D000C007E584303F
:10491E00E0285384FE900567E0C394204002E4F043
:10492E00900567E0FF04F074292FF582E43407F553
:10493E0083E585F09005687405F0E58430E1085351
:10494E0084FD900566E4F0D007D0D0D082D083D01D
:02495E00E03245
:10381D00410918004C091900000000640000003235
:07382D00FF51504109250184
:065144001250E8023D8458
:10407700E4900829F0F0900925E0FF900829E0FE78
:07408700C39F400302412C1E
:10408E00EE75F00CA42419F9740935F0FAA3740135
:10409E00F0A3EAF0A3E9F0900918E06401607690CD
:1040AE00082AE0FBA3E0FAA3E0F9900001121D0735
:1040BE00EC4D4E4F601C900001121D07EF24FFFFC8
:1040CE00EE34FFFEED34FFFDEC34FFFC90000112E8
:1040DE001D3790082AE0FBA3E0FAA3E0F990000157
:1040EE00121D07E4FBFAF9F8C3121CE370279008BF
:1040FE002AE0FBA3E0FAA3E0F97401121B4E90082C
:10410E002AE0FBA3E0FAA3E0F9900005121D079048
:05411E000001121D3735
:09412300900829E004F002407D3F
:01412C002270
:1047B800E490082DF0F0900925E0FF90082DE0FE28
:0447C800C39F5049F2
:1047CC00EE75F00CA42419F9740935F0FA7B01A3E9
:1047DC00EBF0A3EAF0A3E9F0121B08B40123900854
:1047EC002EE0FBA3E0FAA3E0F9E4121B4E90082E96
:1047FC00E0FBA3E0FAA3E0F9900009121DD4121E0D
:01480C0004A7
:08480D0090082DE004F080A9E1
:014815002280
:07512F009009187401F02241
:06514A00E4900918F022B8
:102D0500AD07ED7079C28C121B08FED39403400306
:102D15007FFF22E58954FC4EF589900001121B21A5
:102D2500FED3940240037FFF22EE7006538E7F533D
:102D350089FB900001121B21B40106438E80538943
:102D4500FB900001121B21B4020343890490000289
:102D5500121B21FFE58F54FE4FF58F900003121BC8
:102D6500DDE5F0F58C900003121BDDF58A90000679
:102D7500121B217004C28C8002D28C7F0022ED646C
:102D8500016003022E0BC28E121B08FED394034072
:102D9500037FFF22EEC454F0FFE58954CF4FF58938
:102DA500900001121B21FED3940240037FFF22EE07
:102DB5007006538EBF5389BF900001121B21B401C9
:102DC50006438E405389BF900001121B21B40203B4
:102DD500438940900002121B2125E0FFE58F54FD39
:102DE5004FF58F900003121BDDE5F0F58D90000384
:102DF500121BDDF58B900006121B217004C28E801C
:102E050002D28E7F0022ED64027065538EEF900032
:102E150001121B21FF7006538EFB538EF7EFB40191
:102E250006438E04538EF7EFB40203438E089000D9
:102E350002121B2125E025E0FFE58F54FB4FF58F9E
:102E4500900003121BDDE5F0F5D6900003121BDDA3
:102E5500F5D7900005121B2190FEA2F090000612F6
:102E65001B21C454F0FFE58E54EF4FF58E7F0022F1
:102E7500ED6403707253D1F7900001121B21FED34C
:102E8500940240037FFF22EE700653D1FD53D1FB20
:102E9500900001121B21B4010643D10253D1FB90CE
:102EA5000001121B21B4020343D104900002121B3E
:102EB50021FFE5D154FE4FF5D1900003121BDDE54E
:102EC500F0F5D4900003121BDDF5D5900005121B1B
:102ED5002190FEA3F0900006121B2133333354F8E2
:102EE500FFE5D154F78077ED6404707853D17F9076
:102EF5000001121B21FED3940240037FFF22EE70D6
:102F05000653D1DF53D1BF900001121B21B4010636
:102F150043D12053D1BF900001121B21B4020343BA
:102F2500D140900002121B21C454F0FFE5D154EFAB
:102F35004FF5D1900003121BDDFDACF0ECF5D2AFDF
:102F4500058FD3900005121B2190FEA4F09000067A
:102F5500121B21C43333335480FFE5D1547F4FF521
:072F6500D17F00227FFF2253
:104BA300EFD3940140037FFF22EDD3940340037FAF
:104BB300FF22EF7004C2A98002D2A9ED700553B79A
:104BC300FDC2B9EDB4010553B7FDD2B9EDB4020589
:104BD30043B702C2B9EDB4030543B702D2B97F00AC
:014BE30022AF
:104BE400EFD3940140037FFF22EDD3940340037F6E
:104BF400FF22EF7004C2AB8002D2ABED700553B755
:104C0400F7C2BBEDB4010553B7F7D2BBEDB402054F
:104C140043B708C2BBEDB4030543B708D2BB7F005A
:014C2400226D
:104E9300EFD3940140037FFF22EDD3940340037FBC
:104EA300FF22EF25E025E0FFE5AF54FB4FF5AFE42C
:024EB300FF22DC
:104EB500EFD3940140037FFF22EDD3940340037F9A
:104EC500FF22EFC43354E0FFE5AF54DF4FF5AFE405
:024ED500FF22BA
:104E7000EFD3940140037FFF22EDD3940340037FDF
:104E8000FF22EFC4333354C0FFE5AF54BF4FF5AF3B
:034E9000E4FF221A
:03001B0002000ED2
:03000E00B2EF321C
:0300630002001682
:03001600B2ED3216
:03009B0002001E42
:03001E00B2EC320F
:0300A300020086D2
:03008600B2EB32A8
:0750F500D2B31250FCD2B24D
:0450FC007F0CDFFE48
:01510000228C
:0D50DB001250F5C2B31250FCC2B20250FCDC
:0A510100C2B31250F7D2B30250FC03
:0A510B00C2B31250F7C2B20250FC0A
:085127001250F5C2B20250FC67
:05508E00AF0412002632
:0C5093001250F5A2B392D5C2B20250FC3C
:02002600AE0723
:100028007D08EE30E704D2B38002C2B3EE25E0FECD
:0A0038001250F7C2B21250FCDDE8CE
:01004200229B
:104F36007D08D2B3D2B21250FCEE25E0FE30B301AA
:0A4F46000EC2B21250FCDDECAF0603
:014F5000223E
:104D1B00AE07AC051250DBAF0612002612509320E3
:104D2B00D52212508E20D51C121B08FF12002674A0
:104D3B000129F9E43AFA12509320D50890085DE066
:074D4B0014F070E4025101B5
:10496000900950EDF0AC071250DB12508E20D53F6D
:10497000E0FF12002612509320D5341250DBEC4495
:1049800001FF12002612509320D524124F36EF1249
:104990001B4E740129F9E43AFA900954E06401606D
:1049A0000312510B900954E014F070DF12512702EA
:0249B0005101B3
:104D8600EFD3940140037FFF22EF7010C289121BFC
:104D9600087004C2888002D2887F0022EFB4011016
:104DA600C28B121B087004C28A8002D28A7F00223C
:034DB6007FFF225A
:104C2500EFD3940140037FFF22EDD3940340037F2C
:104C3500FF22EF7004C2A88002D2A8ED700553B719
:104C4500FEC2B8EDB4010553B7FED2B8EDB4020506
:104C550043B701C2B8EDB4030543B701D2B87F002D
:014C6500222C
:104C6600EFD3940140037FFF22EDD3940340037FEB
:104C7600FF22EF7004C2AA8002D2AAED700553B7D4
:104C8600FBC2BAEDB4010553B7FBD2BAEDB40205C7
:104C960043B704C2BAEDB4030543B704D2BA7F00E2
:014CA60022EB
:104F9D00EFD3940140037FFF22EFC454F0FFE58F60
:084FAD0054EF4FF58FE4FF22E1
:104F6B00EFD3940140037FFF22EFC43354E0FFE5FE
:094F7B008F54DF4FF58FE4FF2293
:104F5100EFD3940140037FFF22EFC4333354C0FFEA
:0A4F6100E58F54BF4FF58FE4FF22E7
:03000300020011E7
:0100110032BC
:0300130002505543
:10505500C0E0C083C0829009697402F0D082D08319
:03506500D0E03266
:03008300025068C0
:10506800C0E0C083C0829009697405F0D082D08303
:03507800D0E03253
:103834004308FD0006004308EB0204004308F403B8
:1038440003004308EE0600004308FA04000243089C
:0A385400F70000064308F10003032B
:103CB000EFB408004003023D65903CC0F82828732B
:103CC000023CD8023CDB023CF1023D06023D1B02F5
:103CD0003D30023D45023D5A023D659008EBE090C3
:103CE00008E8F09008ECE09008E9F09008ED023D5B
:103CF000789008F4E09008E8F09008F5E09008E982
:103D0000F09008F680729008EEE09008E8F09008D5
:103D1000EFE09008E9F09008F0805D9008FAE090FC
:103D200008E8F09008FBE09008E9F09008FC804873
:103D30009008F7E09008E8F09008F8E09008E9F0C3
:103D40009008F980339008F1E09008E8F09008F2CC
:103D5000E09008E9F09008F3801EE49008E8F0A3F2
:103D6000F0A3F080189008FDE09008E8F09008FEBD
:103D7000E09008E9F09008FFE09008EAF07B017A13
:033D80000879E8D7
:013D8300221D
:06513600750826D508FDF6
:01513C002250
:081EF900900955EDF0A3EBF098
:101F01007D011246D2900955E0FF700A7C047DECF8
:101F1100AE04AF058032EFB401087B017A05794048
:101F21008022900955E0FFB402087B017A047944CC
:101F31008012EFB403087B017A04799880067B0054
:101F41007A007900AE02AF01900957EEF0A3EFF0ED
:101F5100900956E0FF123CB0E94A70067B017A080D
:101F610079FD900955E06003021FEF900957740451
:101F7100F0A374ECF0E4A3F0A3F0900959E0FEA300
:101F8100E0FFC3941CEE94004003022259121B0887
:101F9100FD9004EC75F003EF121DC8EE75F003A47B
:101FA1002583F583EDF0900001121B21FD9004EDD6
:101FB10075F003EF121DC8EE75F003A42583F583B8
:101FC100EDF0900002121B21FD9004EE75F003EF7D
:101FD100121DC8EE75F003A42583F583EDF0900979
:101FE1005AE004F07094900959E004F0808C900953
:101FF10055E0640160030220BE9009577405F0A307
:102001007440F0E4A3F0A3F0C390095AE094159052
:102011000959E09400502B900957E0FEA3E0F582A6
:102021008E83E4F090095AE004F07006900959E0BB
:1020310004F0900958E004F070CE900957E004F0E4
:1020410080C6E4900959F0A3F0900959E0FEA3E09D
:10205100FFC39407EE94004003022259121B08FDAE
:1020610090054075F003EF121DC8EE75F003A4252D
:1020710083F583EDF0900001121B21FD9005417560
:10208100F003EF121DC8EE75F003A42583F583ED6F
:10209100F0900002121B21FD90054275F003EF1232
:1020A1001DC8EE75F003A42583F583EDF090095A60
:1020B100E004F07094900959E004F0808C90095587
:1020C100E06402600302218D9009577404F0A37447
:1020D10044F0E4A3F0A3F0C390095AE094549009AA
:1020E10059E09400502B900957E0FEA3E0F5828E51
:1020F10083E4F090095AE004F07006900959E00475
:10210100F0900958E004F070CE900957E004F08097
:10211100C6E4900959F0A3F0900959E0FEA3E0FF4D
:10212100C3941CEE94004003022259121B08FD9037
:10213100044475F003EF121DC8EE75F003A4258366
:10214100F583EDF0900001121B21FD90044575F01F
:1021510003EF121DC8EE75F003A42583F583EDF09E
:10216100900002121B21FD90044675F003EF121D31
:10217100C8EE75F003A42583F583EDF090095AE0CC
:1021810004F07094900959E004F0808C900955E0B6
:10219100640360030223199009577404F0A374982F
:1021A100F0E4A3F0A3F0C390095AE09454900959C4
:1021B100E09400502B900957E0FEA3E0F5828E8356
:1021C100E4F090095AE004F07006900959E004F037
:1021D100900958E004F070CE900957E004F080C6F1
:1021E100E4900959F0A3F0900959E0FEA3E0FFC380
:1021F100941CEE94005061121B08FD90049875F038
:1022010003EF121DC8EE75F003A42583F583EDF0ED
:10221100900001121B21FD90049975F003EF121D2E
:10222100C8EE75F003A42583F583EDF0900002124A
:102231001B21FD90049A75F003EF121DC8EE75F095
:1022410003A42583F583EDF090095AE004F070971B
:10225100900959E004F0808F900955E0FF6003B4C4
:102261000105123F058003123FBEE4FFFEFC7D0C19
:10227100121B60900955E0600464017047E4900905
:1022810059F0A3F074A02FF58274023EF583E0F5B6
:10229100CF0FEF70010EC394A4EE94014003E4FE4E
:1022A100FFE5CD30E7FB75CDC090095AE004F07031
:1022B10006900959E004F0900959E0B401C6A3E081
:1022C100B4A4C122900955E0FD64026005ED6403E8
:1022D1007046E4900959F0A3F074002FF582740060
:1022E1003EF583E0F5CF0FEF70010EC394A0EE949D
:1022F100024003E4FEFFE5CD30E7FB75CDC0900958
:102301005AE004F07006900959E004F0900959E090
:08231100B402C6A3E0B4A0C1B0
:0123190022A1
:103F05007E027FA49002A0E4F0A3DFFCDEFA900815
:103F15007A7404F0A374ECF0E4FEFFA3F0A3F09030
:103F2500087AE0FCA3E0F5828C83E0FD90087BE055
:103F350004F0700690087AE004F0E4FCED90087C4B
:103F450030E712E0FAA3E024A0F58274023AF58383
:103F550074E0F08010E0FAA3E024A0F58274023A40
:103F6500F5837480F0ED90087C30E613E0FAA3E069
:103F750024A0F58274023AF583E0440EF08011E046
:103F8500FAA3E024A0F58274023AF583E04408F030
:103F9500ED25E025E0FD90087DE004F07006900831
:103FA5007CE004F00CEC640470920FBF00010EEF8E
:083FB50064694E6003023F2421
:013FBD0022E1
:103FBE007E037FA0900000E4F0A3DFFCDEFA900801
:103FCE007A7404F0A37444F0E4FEFFA3F0A3F0901F
:103FDE00087AE0FCA3E0F5828C83E0FD90087BE09C
:103FEE0004F0700690087AE004F0E4FCED90087C92
:103FFE0030E712E0FAA3E02400F58274003AF5836C
:10400E0074E0F08010E0FAA3E02400F58274003A28
:10401E00F5837480F0ED90087C30E613E0FAA3E0AF
:10402E002400F58274003AF583E0440EF08011E02E
:10403E00FAA3E02400F58274003AF583E04408F018
:10404E00ED25E025E0FD90087DE004F07006900877
:10405E007CE004F00CEC640470920FBF00010EEFD4
:08406E0064A84E6003023FDD6F
:014076002227
:1046D200E4F5CEF5CF75CDC012513643BA80ED5414
:1046E2000324D4F5CEEFB4011243A2045395C3536D
:1046F20096C3C2A45395F743960822EF640270183A
:1047020043A20853C9EF53CAEF53B3F453B4F4C2EC
:10471200C153B3FE43B40122EFB4031243A20C53BC
:10472200B1C353B2C3C2B353B1EF43B2102253A2C7
:10473200F35391C35392C353C9EF53CAEFC2945375
:0647420091F743920822EA
:0235A900AE076B
:1035AB00AF03123CB0E94A70067B017A0879FDEE55
:1035BB00704AEDC3941C40030236F1121B08FFED59
:1035CB0075F003A424ECF582E43404F583EFF0905A
:1035DB000001121B21FFED75F003A424EDF582E42D
:1035EB003404F583EFF0900002121B21FFED75F010
:1035FB0003A424EEF582E434040236EDEE6401708C
:10360B004AEDC3940740030236F1121B08FFED7518
:10361B00F003A42440F582E43405F583EFF0900029
:10362B0001121B21FFED75F003A42441F582E43454
:10363B0005F583EFF0900002121B21FFED75F003EF
:10364B00A42442F582E434050236EDEE640270499F
:10365B00EDC3941C40030236F1121B08FFED75F00D
:10366B0003A42444F582E43404F583EFF0900001C5
:10367B00121B21FFED75F003A42445F582E43404FD
:10368B00F583EFF0900002121B21FFED75F003A400
:10369B002446F582E434048049EE64037048EDC39C
:1036AB00941C5042121B08FFED75F003A42498F5EF
:1036BB0082E43404F583EFF0900001121B21FFED3F
:1036CB0075F003A42499F582E43404F583EFF090AC
:1036DB000002121B21FFED75F003A4249AF582E47E
:0636EB003404F583EFF04A
:0136F10022B6
:02431200AB07F7
:104314007D011246D2EB7005123F058007EBB40114
:1043240003123FBEE4FFFEEB703B900878F0A3F06D
:1043340074A02FF58274023EF583E0F5CF0FBF0021
:10434400010EE5CD30E7FB75CDC0900879E004F0AF
:104354007006900878E004F0900878E0B401D1A3E6
:10436400E0B4A4CC22EB6401703A900878F0A3F096
:1043740074002FF58274003EF583E0F5CF0FBF0083
:10438400010EE5CD30E7FB75CDC0900879E004F06F
:104394007006900878E004F0900878E0B402D1A3A5
:0443A400E0B4A0CC15
:0143A80022F2
:10412D00E4FFFE9004EC75F003EF121DC8EE75F080
:10413D0003A42583F583E4F09004ED75F003EF12ED
:10414D001DC8EE75F003A42583F583E4F09004EE0D
:10415D0075F003EF121DC8EE75F003A42583F583EA
:10416D00E4F00FBF00010EEF64234E70B6E4FEFFC6
:10417D0090044475F003EF121DC8EE75F003A425ED
:10418D0083F583E4F090044575F003EF121DC8EE3E
:10419D0075F003A42583F583E4F090044675F003D0
:1041AD00EF121DC8EE75F003A42583F583E4F00F1F
:1041BD00BF00010EEF64384E70B6E4FF124312E4F7
:0941CD00FF1243127F01024312AC
:08385E004109650F41096600F4
:0D50E80053938753948753937F53947F22F3
:1041D600900965E020E0083083054401F0801690E0
:1041E6000965E030E00F20830CE4FF122A169009DF
:1041F60065E054FEF0900965E0FFC313FE20E00978
:10420600308406EF4402F08013EE30E00F20840C79
:104216007F01122A16900965E054FDF0900965E0C9
:10422600FF1313543FFE20E009308506EF4404F0E7
:104236008013EE30E00F20850C7F02122A169009BB
:1042460065E054FBF0900965E0FF131313541FFE5D
:1042560020E008308605EF4408F022EE30E00F201B
:0F426600860C7F03122A16900965E054F7F022A8
:104EF900900966E0FF700630870304F022EFB401E1
:0F4F09000D20870A7F04122A16E4900966F02211
:1038660050090600FF0100010000FFFF00000100F3
:1038760001FF004209160000410905004109040044
:10507B0053B1BF53B2BF53B17F53B27F53B37F53BF
:03508B00B47F22CD
:03008E0002507BA2
:10455800A2B7E433900900F0A2B6E433A3F09009BF
:1045680000E0FF7008A3E07004A3F08031EF700D45
:10457800900901E0B40106A37401F08021900900BC
:10458800E0B4010AA3E07006A37402F08010900959
:1045980000E0B40109A3E0B40104A37403F0900996
:1045A80005E025E025E0FF900902E0FE2FA3F0E0FA
:1045B8002406F582E43409F583E06011FD3395E0C3
:1045C800FC900917E02DF0900916E03CF0900905E1
:0245D800EEF003
:0145DA0022BE
:09511500900916E0FEA3E0FF2260
:104ED700900904E0700F30C70C7F05122A1690095D
:104EE700047401F022900904E0B4010520C702E42C
:024EF700F022A7
:03009600024ED740
:1000A6000000000000000000002F00000000070014
:1000B600070000147F147F1400242A7F2A1200628E
:1000C600640813230036495522500000050300003A
:1000D60000001C224100000041221C000014083EC2
:1000E60008140008083E0808000000A06000000888
:1000F60008080808000060600000002010080402DC
:10010600003E5149453E0000427F40000042615199
:100116004946002141454B31001814127F10002733
:1001260045454539003C4A494930000171090503F6
:1001360000364949493600064949291E0000363627
:10014600000000005636000000081422410000148A
:100156001414141400004122140800020151090667
:1001660000324959513E007C1211127C007F4949E8
:100176004936003E41414122007F4141221C007F19
:1001860049494941007F09090901003E4149497A27
:10019600007F0808087F0000417F410000204041A1
:1001A6003F01007F08142241007F40404040007F0D
:1001B600020C027F007F0408107F003E4141413E51
:1001C600007F09090906003E4151215E007F091999
:1001D60029460046494949310001017F0101003F96
:1001E6004040403F001F2040201F003F4038403F16
:1001F600006314081463000708700807006151497A
:10020600454300007F41410000552A552A5500000C
:1002160041417F000004020102040040404040408A
:10022600000001020400002054545478007F484422
:10023600443800384444442000384444487F003859
:100246005454541800087E0901020018A4A4A47C82
:10025600007F080404780000447D4000004080844C
:100266007D00007F102844000000417F4000007C94
:1002760004180478007C08040478003844444438A0
:1002860000FC242424180018242418FC007C0804EC
:10029600040800485454542000043F444020003CC5
:1002A6004040207C001C2040201C003C4030403C4C
:1002B600004428102844001CA0A0A07C00446454DC
:1002C6004C44141414141414000000000000000020
:1002D6000000000000000000000000F80000000020
:1002E600000000333000000000100C06100C060061
:1002F600000000000000000040C07840C0784000C8
:10030600043F04043F040400007088FC0830000029
:10031600001820FF211E0000F008F000E018000081
:1003260000211C031E211E0000F00888700000003A
:100336001E2123241927211010160E00000000008C
:100346000000000000000000000000E018040200A9
:10035600000000071820400000020418E00000001A
:100366000040201807000000404080F08040400018
:100376000202010F01020200000000F0000000006E
:100386000101011F01010100000000000000000042
:1003960080B07000000000000000000000000000B7
:1003A6000001010101010101000000000000000040
:1003B60000303000000000000000000080601804DB
:1003C600006018060100000000E010080810E000B8
:1003D600000F102020100F00001010F80000000081
:1003E6000020203F202000000070080808887000C8
:1003F6000030282422213000003008888848300048
:100406000018202020110E000000C02010F8000067
:1004160000070424243F240000F808888808080000
:100426000019212020110E0000E010888818000015
:10043600000F112020110E0000380808C8380800E7
:100446000000003F00000000007088080888700067
:10045600001C222121221C0000E010080810E000E8
:100466000000312222110F00000000C0C000000071
:100476000000003030000000000000800000000096
:10048600000080600000000000008040201008008E
:100496000001020408102000404040404040400057
:1004A6000404040404040400000810204080000032
:1004B6000020100804020100007048080808F00037
:1004C6000000003036010000C030C828E810E00007
:1004D6000718272423140B000000C038E000000092
:1004E600203C23020227382008F8888888700000FC
:1004F600203F202020110E00C030080808083800D0
:10050600071820202010080008F808080810E00046
:10051600203F202020100F0008F88888E8081000E7
:10052600203F20202320180008F88888E8081000BB
:10053600203F200003000000C030080808380000F3
:1005460007182020221E020008F808000008F808F4
:10055600203F210101213F20000808F8080800007B
:100566000020203F2020000000000808F8080800AE
:10057600C08080807F00000008F888C02818080026
:10058600203F20012638200008F80800000000005F
:10059600203F20202020300008F8F800F8F8080056
:1005A600203F003F003F200008F830C00008F80850
:1005B600203F200007183F00E01008080810E00060
:1005C6000F10202020100F0008F808080808F00077
:1005D600203F210101010000E01008080810E0009A
:1005E6000F18242438504F0008F88888888870002F
:1005F600203F2000030C30200070880808083800CF
:100606000038202121221C00180808F808081800C4
:100616000000203F2000000008F808000008F80845
:10062600001F202020201F000878880000C83808F6
:10063600000007380E010000F80800F80008F8006E
:10064600033C0700073C0300081868808068180808
:1006560020302C03032C30200838C800C838080086
:100666000000203F2000000010080808C8380800D5
:100676002038262120201800000000FE0202020079
:100686000000007F40404000000C30C00000000029
:10069600000000010638C00000020202FE00000051
:1006A600004040407F0000000000040202020400F7
:1006B6000000000000000000000000000000000034
:1006C600808080808080808000020204000000001C
:1006D6000000000000000000000080808080000014
:1006E6000019242222223F2008F800808000000002
:1006F600003F112020110E000000008080800000C5
:10070600000E112020201100000000808088F800D3
:10071600000E112020103F20000080808080000005
:10072600001F222222221300008080F08888881869
:100736000020203F20200000000080808080800074
:10074600006B94949493600008F800808080000009
:10075600203F210000203F200080989800000000E4
:100766000020203F20200000000000809898000014
:1007760000C08080807F000008F800008080800034
:10078600203F24022D302000000808F80000000059
:100796000020203F20200000808080808080800014
:1007A600203F20003F20003F8080008080800000A6
:1007B600203F210000203F20000080808080000034
:1007C600001F202020201F00808000808000000065
:1007D60080FFA12020110E00000000808080800094
:1007E600000E112020A0FF80808080008080800085
:1007F60020203F21200001000000808080808000B2
:100806000033242424241900008080E08080000026
:100816000000001F20200000808000000080800073
:10082600001F202020103F208080800000808080D4
:1008360000010E3008060100808000800080808064
:100846000F300C030C300F00008080008080800089
:100856000020312E0E3120008080800000808080B4
:1008660080818E7018060100008080808080800064
:100876000021302C2221300000000000807C020282
:1008860000000000003F404000000000FF000000A4
:1008960000000000FF0000000002027C8000000053
:1008A6000040403F0000000000060101020204046F
:1008B600000000000000000002E22222222222FEA6
:1008C6002222222222E2020000FF00000912007FFB
:1008D60000091240807F00002030AC63308040B0B9
:1008E6008E808087986080002267221212804030B6
:1008F6000F0040807F0000002030AC63308040B0A5
:100906008E80808798608000226722121280403095
:100916000F0040807F0000000000FF000000FE8204
:100926008282828282FE00000000FF0000007F209B
:1009360020202020207F0000101010FF10105020D3
:10094600D8171010F0101000007F2121217F804061
:1009560021160816214080000000FE92929292FE17
:1009660092929292FE000000404044444444447FE8
:100976004444444444404000040404E4A4AFA4A412
:10098600A4AFA4E4040404000808080B0A0A0AFE3B
:100996000A0A0A0B080808000010101010D030FFD1
:1009A60030D010101010000010080402010000FFE3
:1009B60000000102040810001060028C000E2212D2
:1009C6000AC20A12220E000004047E012021110927
:1009D60005FF05091121200020242424FE232220BE
:1009E60020FF20222CA02000000848847F024140DE
:1009F60020130C142241F80000FC0404FC0000FC47
:100A0600444444C243424000000F04040F80601F68
:100A1600000000FF0000000000F8011210F2525220
:100A260052F2121202FE000000FF0008080F090928
:100A3600097F0444807F0000008060F8074020188A
:100A46000F08C80808281800010000FF00100C0352
:100A560040807F00010618001010F01F10F00040C3
:100A6600E05847405060C00040221508162100009B
:100A7600FE42424242FE00002030AC633020101895
:100A8600A744A4140C0000002267221212020121BE
:100A9600244448910102020080808080808080800A
:100AA60080808080808080000000000000000000C0
:100AB600000000000000000080804020100804C3F1
:100AC600040810204080800000000000000000FFA5
:100AD6000000000000000000000000000000C03F11
:100AE600C000000000000000804020100C03000041
:080AF60000030C1020408000F9
:1000460090096AEFF07006FD7FA6124D6390096A6B
:0C005600E0B40107E4FD7FA7124D632217
:104E460090096BEFF0700DFD7FC8124D63E4FD7F96
:104E5600A1124D6390096BE0B4010EE4FD7FC01210
:0A4E66004D63E4FD7FA0124D6322AE
:104D5200F583E5822FF582E5833EF583E493FF7DBB
:014D6200014F
:104D6300900857EFF0ED7B017A08795790085D6062
:104D7300077401F07D4080057401F0E4FD7F781233
:034D83004D1B22A3
:074DB900E0FFA3E0FD04F0A0
:104DC000900856EFF0ED24B0FFE4FD124D6390081B
:104DD00056E054F0C4540F4410FFE4FD124D6390AC
:0B4DE0000856E0540FFFE4FD024D6395
:104FCC00E4FD7F8D124D63E4FD7F14124D63E4FD0F
:054FDC007FAF024D63F0
:104FE100E4FD7F8D124D63E4FD7F10124D63E4FDFE
:054FF1007FAE024D63DC
:104AD900E4900845F0900845E0FFC394085036EF8C
:104AE90024B0FFE4FD124D63E4FDFF124D63E4FDC4
:104AF9007F10124D63E4900846F07D01E4FF124DEA
:104B090063900846E004F0E0C3948040ED900845C6
:054B1900E004F080C083
:014B1E002274
:08392B0090084CEFF0A3EDF051
:10393300E4900850F090084FE0FFC313FD90085146
:10394300F0E4A3F0A3F0EFB40809A3E4F0A3740632
:10395300F0803190084FE0FF131313541FF5827565
:103963008300EF54077E0060047F0180027F00EF35
:103973002582FFEE3583FE7C00121B60900854EE17
:10398300F0A3EFF0EB24E0900850F090084CE0FF38
:10399300A3E0FD124DC0E4900852F0A3F090085448
:1039A300E0FCA3E0FD900852E0FEA3E0FFC39DEE20
:1039B3009C5070900851E0FD7C00121B72ED4C701E
:1039C3000E90084FE06408600690084C124DB990C1
:1039D300084FE0B4081A900852E0FEA3E0FF9008F5
:1039E30050E075F006A424A6F582E5F03400801FAC
:1039F30090084FE0B4102C900852E0FEA3E0FF9033
:103A03000850E075F010A424CEF582E5F0340212DC
:103A13004D52900853E004F07006900852E004F011
:033A23000239A0C5
:013A2600227D
:074F180090096CEFF0A90500
:104F1F007F017E00AD0119ED600C90096CE0FD7C06
:064F2F0000121B6080EE81
:014F35002259
:0E3A270090093DEFF0A3EDF0A3EAF0A3EBF061
:103A3500E4900945F0A3F0900942E0B40806900926
:103A4500457402F0E4900943F0900941E0FF9009C4
:103A550043E0FEC39F4003023B01C3EF9E14FD7F7D
:103A65000A124F1890093FE0FCA3E0FDCFCDCFCE61
:103A7500CCCE121B727C007D0A121B72900944ED9C
:103A8500F0900946E0703C900941E014FF9009432D
:103A9500E0FEC39F502DA3E07023900942E0FCC3D4
:103AA50013FF900945E02F8EF0A4FF90093DE02F0C
:103AB500FFA3E0FD90084FECF07B20803390094692
:103AC5007401F0900942E0FEC313FF900945E02F11
:103AD500FF900943E0FDEF8DF0A4FF90093DE02F35
:103AE500FFA3E0FD900944E02430FB90084FEEF081
:0C3AF50012392B900943E004F0023A4E15
:013B010022A1
:10474800900845EFF0A3EDF0A3EBF0A3EAF0A3E99E
:01475800F070
:10475900E490084BF0900847E0FBA3E0FAA3E0F9E6
:1047690090084BE0F582758300121B216040900888
:1047790045E0FFA3E0FD90084BE0FE04F08E827552
:104789008300121B21FB90084AE090084FF0123970
:104799002B90084AE0FFB40809900845E02406F088
:0E47A90080B3EFC313FF900845E02FF080A708
:0147B70022DF
:0B427500900947EFF0A3EDF0A3EBF081
:10428000A3E0FF131313541FFD7C00EF54077E00BF
:1042900060047F0180027F00EF2DFFEE3CFE90095D
:1042A0004AE0FD7C00121B6090094DEEF0A3EFF098
:1042B000E490094BF0A3F090094DE0FCA3E0FD90E1
:1042C000094BE0FEA3E0FFC39DEE9C504490094AD9
:1042D000E0FD7C00121B72ED4C7006900947124DF8
:1042E000B990094AE0B41029A3E0FEA3E0FF9009C9
:1042F00049E075F020A424BEF582E5F03408124DA3
:104300005290094CE004F070AE90094BE004F0804C
:01431000A606
:014311002289
:0B43A900900932EFF0A3EDF0A3EBF061
:1043B400E4900939F0A3F0900935E0FF1313135486
:1043C4001FFEEF540760047F0180027F00EE2F90F0
:1043D4000935F0E490093BF0900935E0FF90093B82
:1043E400E0FEC39F5051900932E0FFA3E0FDEE2DA3
:1043F400FD124DC0E490093CF0900934E0FF9009AF
:104404003CE0C39F5029900936E0FBA3E0FAA3E007
:10441400F9A3E475F001121BC785F082F583121B22
:1044240021FF7D01124D6390093CE004F080CA90A5
:07443400093BE004F080A148
:01443B00225E
:103D8400E4FD7FAE124D63E4FDFF124D63E4FD7F5D
:103D940010124D63E4FD7F40124D63E4FD7F8112F8
:103DA4004D63E4FD7FCF124D63E4FD7FA1124D63AB
:103DB400E4FD7FC8124D63E4FD7FA6124D63E4FD6C
:103DC4007FA8124D63E4FD7F3F124D63E4FD7FD372
:103DD400124D63E4FDFF124D63E4FD7FD5124D6384
:103DE400E4FD7F80124D63E4FD7FD9124D63E4FD51
:103DF4007FF1124D63E4FD7FDA124D63E4FD7F121F
:103E0400124D63E4FD7FDB124D63E4FD7F40124DF0
:103E140063E4FD7F20124D63E4FD7F02124D63E4F1
:103E2400FD7F8D124D63E4FD7F14124D63E4FD7F2D
:103E3400A4124D63E4FD7FA6124D63124AD9E4FD3A
:053E44007FAF024D6399
:104816000106030200070707070707070707070739
:10482600070707070707070707070707050104061E
:104836000007070707070707070707070707070709
:10484600070707070707070701050302000707070A
:1048560007070707070707070707070707070707E2
:044866000707070732
:1038860050087E020503010301040205000103003E
:1038960003020450088E0600020104030205020416
:1038A60005000106030250089E06020104050400F5
:0938B600010203050603060200ED
:053B0200900831EFF016
:103B070078347C087D017BFF7A4879167E007F1C1C
:103B1700121AE278AF7C087D017B017A0879347E3E
:103B2700007F1C121AE2E4900962F0900961F0909C
:103B370009607404F0E4900832F0900832E0FD2444
:103B470034F582E43408F583E0FBE4FF1235A990ED
:103B57000832E004F0E0C3940440DFE4900832F058
:103B6700E4900833F0900833E0FFC3940750379090
:103B77000832E0FE900831E025E025E0247AF5825E
:103B8700E43408F583E5822EF582E43583F583E096
:103B9700B5070B900833E0FBFD7F011235A99008AC
:103BA70033E004F080BF900832E004F0E0C39404EF
:103BB70040AE900831E014FF12443C900962740152
:103BC700F0E4FB7D04FF1235A9E4FB7D047F0202CC
:023BD70035A90E
:053BD900900831EFF03F
:103BDE0078347C087D017BFF7A4879327E007F1C29
:103BEE00121AE278AF7C087D017B017A0879347E67
:103BFE00007F1C121AE2E4900962F0900961F090C5
:103C0E0009607404F0E4900832F0900832E0FD246C
:103C1E0034F582E43408F583E0FBE4FF1235A99015
:103C2E000832E004F0E0C3940440DFE4900832F080
:103C3E00E4900833F0900833E0FFC39407503790B8
:103C4E000832E0FE900831E025E025E0248AF58276
:103C5E00E43408F583E5822EF582E43583F583E0BE
:103C6E00B5070B900833E0FBFD7F011235A99008D4
:103C7E0033E004F080BF900832E004F0E0C3940417
:103C8E0040AE900831E014FF1233F09009627401D7
:103C9E00F0E4FB7D04FF1235A9E4FB7D047F0202F4
:023CAE0035A936
:0545DB00900831EFF033
:1045E00078337C087D017BFF7A48794E7E007F1C02
:1045F000121AE278AF7C087D017B017A0879337E5C
:10460000007F1C121AE2E4900962F0900961F090B8
:1046100009607404F0E4900832F0900832E0FD2460
:1046200033F582E43408F583E0FBE4FF1235A9900A
:104630000832E004F0E0C3940440DF900831E01455
:10464000FF1231C09009627401F0E4FB7D04FF1297
:0B46500035A9E4FB7D047F020235A9C0
:09511E00636E743A2025640A0056
:0538BF00420967000052
:100066007BFF7A51791E900967E475F001121BC770
:0C007600AFF0900848F0A3EFF002271C48
:0C38C400410961004109600441096201F2
:065150001241D6024EF9E7
:052A160090082DEFF017
:102A1B00E4A3F0A3F090095EE0700890082DE0FFAE
:102A2B00024FB590095EE0B4010890082DE0FF025B
:102A3B00465B90095EE0B4020890082DE0FF023679
:102A4B00F290095EE064036003022D0490082DE010
:102A5B006003022AE1900960E014F0900962E0FD46
:102A6B0075F004A4FF900960E0C39FE5F06480F863
:102A7B007480985006ED25E025E0F0900962E0FDAA
:102A8B0075F004A42403FFE435F0FE900960E0D355
:102A9B009FEE6480F87480984008ED25E025E024D3
:102AAB0003F0900961E0FB900960E0FD24AFF58233
:102ABB00E43408F583EBF0E4FF1235A9900960E0EC
:102ACB0004FD7B077F021235A9900960E0FDA3E0AE
:102ADB00FB7F021235A990082DE064026003022BE4
:102AEB006D900960E004F0900962E0FD75F004A4BC
:102AFB00FF900960E0C39FE5F06480F87480985004
:102B0B0006ED25E025E0F0900962E0FD75F004A4E8
:102B1B002403FFE435F0FE900960E0D39FEE648060
:102B2B00F87480984008ED25E025E02403F0900927
:102B3B0061E0FB900960E0FD24AFF582E43408F519
:102B4B0083EBF0E4FF1235A9900960E014FD7B07DD
:102B5B007F021235A9900960E0FDA3E0FB7F021212
:102B6B0035A990082DE064017045900961E004F0EF
:102B7B00E0C36480948050037406F0900961E0D345
:102B8B00648094864002E4F0900961E0FB90096058
:102B9B00E0FD24AFF582E43408F583EBF0E4FF129B
:102BAB0035A9900960E0FDA3E0FB7F021235A990E7
:102BBB00082DE064037045900961E014F0E0C364F4
:102BCB0080948050037406F0900961E0D364809484
:102BDB00864002E4F0900961E0FB900960E0FD247F
:102BEB00AFF582E43408F583EBF0E4FF1235A990DE
:102BFB000960E0FDA3E0FB7F021235A990082DE0F0
:102C0B0064046003022CFA900960E0FD7B077F02ED
:102C1B001235A990095FE0B4010B90095BE014FF3A
:102C2B0012443C802290095FE0B4020B90095CE0F7
:102C3B0014FF1233F0801090095FE0B40309900980
:102C4B005DE014FF1231C090095EE0B4053E124AFC
:102C5B00D9120AFEE490095EF012512F900963E03D
:102C6B00FFA3E090082ECFF0A3EFF090082EE0FE2C
:102C7B00A3E0FFC3900964E09FFF900963E09EFE11
:102C8B00C3EF94E8EE940340E202514A900962E0EC
:102C9B00B4061290095E7404F0124AD9120AFEE4CB
:102CAB0090095EF022900962E004F0E0FD75F004FB
:102CBB00A4FF900960E0C39FE5F06480F8748098EE
:102CCB005006ED25E025E0F0900961E0FB900960EE
:102CDB00E0FD24AFF582E43408F583EBF0E4FF125A
:102CEB0035A9900960E0FDA3E0FB7F021235A9E452
:092CFB00FF1243127F0112431283
:012D040022AC
:10231A00475545535320434F4C4F522076312E3068
:10232A0000506C6561736520507265737300526961
:10233A006768746D6F737420427574746F6E00747D
:10234A006F20537461727400446966666963756CC0
:10235A0074792053573A003E20312E204E6F726D09
:10236A00616C002020322E204861726400202033E4
:10237A002E2045787065727473002020312E204E0D
:10238A006F726D616C003E20322E204861726400CB
:10239A003E20332E2045787065727473003E204EBD
:1023AA006F726D616C204C7631200020204E6F7266
:1023BA006D616C204C7632200020204E6F726D6168
:1023CA006C204C7633200020204E6F726D616C2099
:1023DA004C7634200020204E6F726D616C204C7652
:1023EA003120003E204E6F726D616C204C76322097
:1023FA00003E204E6F726D616C204C763320003E99
:10240A00204E6F726D616C204C763420003E20485D
:10241A00617264204C763120002020486172642069
:10242A004C76322000202048617264204C7633209A
:10243A0000202048617264204C7634200020204815
:10244A00617264204C763120003E2048617264201B
:10245A004C763220003E2048617264204C7633204C
:10246A00003E2048617264204C763420003E2045AC
:10247A00787065727473204C76312000202045787C
:10248A007065727473204C76322000202045787073
:10249A0065727473204C763320002020457870656D
:1024AA00727473204C76342000202045787065724F
:1024BA007473204C763120003E2045787065727422
:1024CA0073204C763220003E204578706572747312
:1024DA00204C763320003E20457870657274732054
:1024EA004C763420004E6D204C6576656C20256450
:1024FA00005449503A20436F6C6F722075736564BB
:10250A0000504F533A20477265656E2045786163E3
:10251A00740041434B3A204E6F7420446973706CC7
:10252A006179004864204C6576656C20256400500A
:10253A004F533A204E6F7420446973706C6179006E
:10254A0041434B3A20436F727265637420436E7441
:10255A00004578204C6576656C2025640054495006
:10256A003A204E6F7420446973706C6179004E6D25
:10257A00204C76202564204661696C656400596F99
:10258A0075204661696C2E2E2E00446F6E60742091
:10259A00576F727279004C65746073207472792077
:1025AA00616761696E004864204C76202564204684
:1025BA0061696C656400596F752063616E20646F90
:1025CA002069740042656C6965766520796F757259
:1025DA0073656C66004578204C7620256420466138
:1025EA00696C6564004973206974207374696C6C42
:1025FA0000746F6F206861726420666F7220796F51
:10260A0075004E6D204C7620256420436C656172FE
:10261A00656400506572666563742100596F7520A0
:10262A00746F6F6B207468650066697273742073C7
:10263A0074657021004864204C7620256420436C20
:10264A00656172656400457863656C6C656E7421BA
:10265A000057656C6C20706C6179656421004B656C
:10266A00657020697420757021004578204C7620A9
:10267A00256420436C656172656400436F6E6772FE
:10268A006174756C6174696F6E732100556E626551
:10269A006C69657661626C652100596F75206D61A0
:0726AA006465206974210042
:1038D00041095E0041095F0141095B0141095C0149
:0438E00041095D013C
:100AFE0090095EE070417BFF7A23791A90084A7460
:100B0E0010F0E4FDFF1247487BFF7A23792B900803
:100B1E004A7410F07D02E4FF1247487BFF7A237976
:100B2E003890084A7410F07D04E4FF1247487BFFAA
:100B3E007A2379490213AE90095EE06401600302E4
:100B4E000C26A3E024FE604E147003020BE5240273
:100B5E0060030213BB7BFF7A23795290084A74100C
:100B6E00F0E4FDFF1247487BFF7A23796190084A33
:100B7E007410F07D02E4FF1247487BFF7A23796DF3
:100B8E0090084A7410F07D04E4FF1247487BFF7A08
:100B9E002379770213AE7BFF7A23795290084A7439
:100BAE0010F0E4FDFF1247487BFF7A23798490080A
:100BBE004A7410F07D02E4FF1247487BFF7A2379D6
:100BCE009090084A7410F07D04E4FF1247487BFFB2
:100BDE007A2379770213AE7BFF7A23795290084AF3
:100BEE007410F0E4FDFF1247487BFF7A237984905E
:100BFE00084A7410F07D02E4FF1247487BFF7A2307
:100C0E00796D90084A7410F07D04E4FF1247487B1A
:100C1E00FF7A23799A0213AE90095EE064026003B4
:100C2E00020FB6A3E064016003020D5C90095BE065
:100C3E0024FE6054147003020CD7147003020D18B6
:100C4E0024036003020D597BFF7A2379A790084A8B
:100C5E007410F0E4FDFF1247487BFF7A2379B590BC
:100C6E00084A7410F07D02E4FF1247487BFF7A2396
:100C7E0079C390084A7410F07D04E4FF1247487B54
:100C8E00FF7A2379D10213AE7BFF7A2379DF9008A6
:100C9E004A7410F0E4FDFF1247487BFF7A2379ED8A
:100CAE0090084A7410F07D02E4FF1247487BFF7AE9
:100CBE002379C390084A7410F07D04E4FF1247486C
:100CCE007BFF7A2379D10213AE7BFF7A2379DF90F3
:100CDE00084A7410F0E4FDFF1247487BFF7A23792F
:100CEE00B590084A7410F07D02E4FF1247487BFF6E
:100CFE007A2379FB90084A7410F07D04E4FF1247C2
:100D0E00487BFF7A2379D10213AE7BFF7A2379DFFA
:100D1E0090084A7410F0E4FDFF1247487BFF7A23D7
:100D2E0079B590084A7410F07D02E4FF1247487BB3
:100D3E00FF7A2379C390084A7410F07D04E4FF1201
:100D4E0047487BFF7A2479090213AE0213BB900940
:100D5E005FE064026003020E8990095CE024FE608D
:100D6E0054147003020E04147003020E4524036023
:100D7E0003020E867BFF7A24791790084A7410F0CE
:100D8E00E4FDFF1247487BFF7A24792390084A74CA
:100D9E0010F07D02E4FF1247487BFF7A24792F90F2
:100DAE00084A7410F07D04E4FF1247487BFF7A2452
:100DBE00793B0213AE7BFF7A24794790084A741070
:100DCE00F0E4FDFF1247487BFF7A24795390084ADE
:100DDE007410F07D02E4FF1247487BFF7A24792FCE
:100DEE0090084A7410F07D04E4FF1247487BFF7AA6
:100DFE0024793B0213AE7BFF7A24794790084A741C
:100E0E0010F0E4FDFF1247487BFF7A247923900807
:100E1E004A7410F07D02E4FF1247487BFF7A247972
:100E2E005F90084A7410F07D04E4FF1247487BFF80
:100E3E007A24793B0213AE7BFF7A24794790084AD5
:100E4E007410F0E4FDFF1247487BFF7A247923905B
:100E5E00084A7410F07D02E4FF1247487BFF7A24A3
:100E6E00792F90084A7410F07D04E4FF1247487BF6
:100E7E00FF7A24796B0213AE0213BB90095FE06414
:100E8E000360030213BE90095DE024FE60541470EB
:100E9E0003020F31147003020F7224036003020F5A
:100EAE00B37BFF7A24797790084A7410F0E4FDFF43
:100EBE001247487BFF7A24798690084A7410F07D99
:100ECE0002E4FF1247487BFF7A24799590084A7412
:100EDE0010F07D04E4FF1247487BFF7A2479A402C8
:100EEE0013AE7BFF7A2479B390084A7410F0E4FDB8
:100EFE00FF1247487BFF7A2479C290084A7410F09B
:100F0E007D02E4FF1247487BFF7A24799590084AC8
:100F1E007410F07D04E4FF1247487BFF7A2479A415
:100F2E000213AE7BFF7A2479B390084A7410F0E472
:100F3E00FDFF1247487BFF7A24798690084A741089
:100F4E00F07D02E4FF1247487BFF7A2479D19008A6
:100F5E004A7410F07D04E4FF1247487BFF7A24792F
:100F6E00A40213AE7BFF7A2479B390084A7410F072
:100F7E00E4FDFF1247487BFF7A24798690084A7475
:100F8E0010F07D02E4FF1247487BFF7A247995909A
:100F9E00084A7410F07D04E4FF1247487BFF7A2460
:100FAE0079E00213AE0213BB90095EE064036003A6
:030FBE0002110B12
:100FC100124AD990095FE024FE6072147003021086
:100FD100A32402600302110890084874FFF0A3746F
:100FE10024F0A374EFF090095BE0FF90084BE4F06C
:100FF100A3EFF07B017A0879311227167B017A0879
:10100100793190084A7410F0E4FDFF1247487BFFE4
:101011007A2479FB90084A7410F07D02E4FF1247AC
:10102100487BFF7A25790B90084A7410F07D04E41F
:10103100FF1247487BFF7A25791C0213AE900848BE
:1010410074FFF0A37425F0A3742DF090095CE0FF08
:1010510090084BE4F0A3EFF07B017A087931122775
:10106100167B017A08793190084A7410F0E4FDFF8B
:101071001247487BFF7A2479FB90084A7410F07D6F
:1010810002E4FF1247487BFF7A25793990084A74B8
:1010910010F07D04E4FF1247487BFF7A25794A026C
:1010A10013AE90084874FFF0A37425F0A3745BF0AD
:1010B10090095DE0FF90084BE4F0A3EFF07B017A2B
:1010C1000879311227167B017A08793190084A7420
:1010D10010F0E4FDFF1247487BFF7A2579679008FD
:1010E1004A7410F07D02E4FF1247487BFF7A2579AC
:1010F1003990084A7410F07D04E4FF1247487BFFE1
:0A1101007A25794A0213AE0213BBEF
:0B110B0090095EE064046003021260C3
:10111600124AD990095FE024FE607214700302112E
:10112600F82402600302125D90084874FFF0A3746D
:1011360025F0A37478F090095BE0FF90084BE4F08B
:10114600A3EFF07B017A0879311227167B017A0822
:10115600793190084A7410F0E4FDFF1247487BFF8E
:101166007A25798890084A7410F07D02E4FF1247C8
:10117600487BFF7A25799490084A7410F07D04E440
:10118600FF1247487BFF7A2579A00213AE900848E4
:1011960074FFF0A37425F0A374B0F090095CE0FF2F
:1011A60090084BE4F0A3EFF07B017A08793112271F
:1011B600167B017A08793190084A7410F0E4FDFF35
:1011C6001247487BFF7A25798890084A7410F07D8B
:1011D60002E4FF1247487BFF7A2579C090084A74DB
:1011E60010F07D04E4FF1247487BFF7A2579CE0292
:1011F60013AE90084874FFF0A37425F0A374DFF0D3
:1012060090095DE0FF90084BE4F0A3EFF07B017AD4
:101216000879311227167B017A08793190084A74C9
:1012260010F0E4FDFF1247487BFF7A257988900885
:101236004A7410F07D02E4FF1247487BFF7A257955
:10124600EF90084A7410F07D04E4FF1247487BFFD4
:0A1256007A2579FB0213AE0213BBE8
:0B12600090095EE0640560030213BE0D
:10126B00124AD990095FE024FE60721470030213D6
:10127B004C240260030213BB90084874FFF0A37464
:10128B0026F0A3740CF090095BE0FF90084BE4F0A0
:10129B00A3EFF07B017A0879311227167B017A08CC
:1012AB00793190084A7410F0E4FDFF1247487BFF38
:1012BB007A26791D90084A7410F07D02E4FF1247DC
:1012CB00487BFF7A26792690084A7410F07D04E457
:1012DB00FF1247487BFF7A2679330213AE900848FA
:1012EB0074FFF0A37426F0A3743FF090095CE0FF49
:1012FB0090084BE4F0A3EFF07B017A0879311227C9
:10130B00167B017A08793190084A7410F0E4FDFFDE
:10131B001247487BFF7A26795090084A7410F07D6B
:10132B0002E4FF1247487BFF7A26795B90084A74E8
:10133B0010F07D04E4FF1247487BFF7A2679688022
:10134B006290084874FFF0A37426F0A37474F090B5
:10135B00095DE0FF90084BE4F0A3EFF07B017A0806
:10136B0079311227167B017A08793190084A74106B
:10137B00F0E4FDFF1247487BFF7A26798590084AF7
:10138B007410F07D02E4FF1247487BFF7A267996B2
:10139B0090084A7410F07D04E4FF1247487BFF7AF3
:1013AB002679A490084A7410F07D06E4FF024748A2
:0313BB00124AD9FA
:0113BE00220C
:104F84000001020304FF05060709FEFA080909FDEA
:094F9400F9090909FC09090909E0
:1038E4004108AE015C08AF07070707000707070791
:1038F4000707070707070707070707070707070754
:03390400070707AB
:104FB500EFB4041212412D12412D90095E7401F0D7
:074FC500124AD9120AFE2274
:05465B00900830EFF0B3
:10466000BF012A9008AEE014F0E0C364809481504A
:10467000037403F09008AEE0D36480948340037425
:1046800001F09008AEE090095FF0120AFE90083049
:10469000E0B4032A9008AEE004F0E0C364809481A3
:1046A00050037403F09008AEE0D364809483400319
:1046B0007401F09008AEE090095FF0120AFE9008D5
:1046C00030E0B4040C90095E7402F0124AD9120A68
:0146D000FEEB
:0146D10022C6
:1036F200900830EFF06401706490095FE0B4011A41
:1037020090095BE014F0E0D3940440037401F0905C
:10371200095BE070457404F0804090095FE0B402F8
:103722001A90095CE014F0E0D3940440037401F0B1
:1037320090095CE070037404F0801F90095FE0B4AC
:10374200031B90095DE014F0E0D39404400374017C
:10375200F090095DE070037404F0120AFE900830E4
:10376200E06403706490095FE0B4011A90095BE0C1
:1037720004F0E0D3940440037401F090095BE0701C
:10378200457404F0804090095FE0B4021A90095C2D
:10379200E004F0E0D3940440037401F090095CE08B
:1037A20070037404F0801F90095FE0B4031B90095A
:1037B2005DE004F0E0D3940440037401F090095DED
:1037C200E070037404F0120AFE900830E0640470A2
:1037D2004490095E7403F090095FE0B4010A900915
:1037E2005BE0FF123B02802090095FE0B4020A9086
:1037F200095CE0FF123BD9800F90095FE0B403152A
:1038020090095DE0FF1245DB7F01124312E4FF12D3
:063812004312120AFE221F
:05443C00900850EFF0B4
:10444100E4A3F0A3F0900851F0900851E0FFC39469
:10445100045060E0FE900962E0FD75F004A42EF5C1
:1044610082E435F0F583E58224AFF582E5833408F3
:10447100F583E0FC900850E025E025E0247EF582FC
:10448100E43408F583E5822EF582E43583F583E093
:10449100FEECB50616ED25E025E0FEEF2EFD7B03D3
:1044A1007F021235A9900852E004F0900851E0040F
:1044B100F08096900852E0B4041090095E7405F003
:0A44C100E4FF1243127F01124312C0
:0144CB0022CE
:1033F000E4900850F0A3F0900850F0900850E0FEE0
:10340000900962E075F004A42EF582E435F0F583AE
:10341000E58224AFF582E5833408F583E0FDEF25EE
:10342000E025E0248EF582E43408F583E5822EF56C
:1034300082E43583F583E0FEEDB50606900851E0A1
:1034400004F0900850E004F0E0B404AF900851E0BC
:10345000702C900850F0900850E0FFC39404400393
:103460000235A8900962E025E025E0FEEF2EFDE49C
:10347000FB7F031235A9900850E004F080D8900833
:1034800051E06401703E900962E025E025E0FD7B9B
:10349000037F031235A9E4900850F0900850E0FF34
:1034A000C3940340030235A8900962E025E025E0BB
:1034B00004FEEF2EFDE4FB7F031235A9900850E0D7
:1034C00004F080D7900851E064027058900850F0E2
:1034D000900850E0FFC39402501B900962E025E081
:1034E00025E0FEEF2EFD7B037F031235A9900850E7
:1034F000E004F080DBE4900850F0900850E0FFC357
:10350000940240030235A8900962E025E025E024FA
:1035100002FEEF2EFDE4FB7F031235A9900850E078
:1035200004F080D6900851E06403703B900850F09E
:10353000900850E0FFC39403501B900962E025E01F
:1035400025E0FEEF2EFD7B037F031235A990085086
:10355000E004F080DB900962E025E025E02403FD33
:10356000E4FB7F030235A9900851E06404703990B0
:103570000850F0900850E0FFC39404501B9009627B
:10358000E025E025E0FEEF2EFD7B037F031235A949
:10359000900850E004F080DB90095E7405F0E4FFD1
:0835A0001243127F01124312D5
:0135A8002200
:0531C00090084FEFF044
:1031C500E4900851F0A3F090085CF0A3F0785F7CE0
:1031D500087D017BFF7A4F7984FE7F19121AE2E49C
:1031E500900850F0900850E0FF900962E075F004F7
:1031F500A42FF582E435F0F583E58224AFF582E569
:10320500833408F583E0FE74572FF582E43408F51E
:1032150083EEF0900850E0FF90084FE025E025E0B0
:10322500249EF582E43408F583E5822FF582E435A2
:1032350083F583E0FE74532FF582E43408F583EEBD
:10324500F0900850E004F0E0B40499E4900850F0E0
:10325500900850E0FF2453F582E43408F583E0FE3E
:1032650074572FF582E43408F583E0B506239008FA
:1032750051E004F0900850E02457F582E43408F555
:103285008374FFF074532FF582E43408F58374FFDB
:10329500F0900850E004F0E0B404B5E4900850F074
:1032A500900850E0FFC39404506074572FF582E4F2
:1032B5003408F583E0F4604AE4FF74532FF582E4A3
:1032C5003408F583E0FEF46034900850E0FD24579F
:1032D500F582E43408F583E0B50622900852E0044F
:1032E500F074572DF582E43408F58374FFF07453B8
:1032F5002FF582E43408F58374FFF080050FEFB4F1
:1033050004B8900850E004F08096900851E06404F9
:103315007039900850F0900850E0FFC39404501B9A
:10332500900962E025E025E0FEEF2EFD7B037F039B
:103335001235A9900850E004F080DB90095E740511
:10334500F0E4FF1243127F01024312900852E0FF9E
:10335500900851E0FE75F005A4245FF582E4340879
:10336500F583E5822FF582E43583F583E090085BEC
:10337500F0A3EEF0A3EFF0E4900850F0900850E0D1
:10338500FFC39404505A90085CE0FEEFC39E5008BA
:1033950090085E7403F0802790085DE0FDEE2DFF38
:1033A500E433FE900850E0C39FEE6480F874809883
:1033B500500890085E7401F08005E490085EF09076
:1033C5000962E025E025E0FF900850E02FFD900818
:1033D5005EE0FB7F031235A9900850E004F0809C65
:0A33E50090085BE0B4090312412DCB
:0133EF0022BB
:07513D000001020304050656
:103907004108CB005C08CC00010402050803060946
:103917000C070A0D100B0E11140F12151813161998
:033927001A171B51
:103E490078277C097D017BFF7A51793D7E007F07C8
:103E5900121AE290092E7405F090095EE0600302DF
:103E69003F04900926F0900926E0FDC3941C500FE9
:103E79007B07E4FF1235A9900926E004F080E7E406
:103E8900900926F090092EE0FF900926E0FEC39FD5
:023E9900505681
:103E9B00EEFF9008CBE02FFBE433FA7C007D1CAFE8
:103EAB0003FE121B7290092FEDF0E024CCF582E497
:103EBB003408F583E0900930F07C007D07AF03AE4A
:103ECB0002121B72A3EDF0900930E0FDA3E0242752
:0E3EDB00F582E43409F583E0FBE4FF1235A91B
:103EE900900926E004F0809CE4FF1243129008CB6D
:0B3EF900E004F0E0C3941C4002E4F081
:013F0400229A
:030000000244CCEB
:0C44CC00787FE4F6D8FD758121024513CD
:101A1200E709F608DFFA8046E709F208DFFA803EB6
:101A220088828C83E709F0A3DFFA8032E309F608A3
:101A3200DFFA8078E309F208DFFA807088828C830B
:101A4200E309F0A3DFFA806489828A83E0A3F608BF
:101A5200DFFA805889828A83E0A3F208DFFA804C99
:101A620080D280FA80C680D4806980F28033801070
:101A720080A680EA809A80A880DA80E280CA8033D9
:101A820089828A83ECFAE493A3C8C582C8CCC58351
:101A9200CCF0A3C8C582C8CCC583CCDFE9DEE78021
:101AA2000D89828A83E493A3F608DFF9ECFAA9F0A0
:101AB200EDFB2289828A83ECFAE0A3C8C582C8CCF6
:101AC200C583CCF0A3C8C582C8CCC583CCDFEADE0F
:101AD200E880DB89828A83E493A3F208DFF980CC71
:101AE20088F0EF60010E4E60C388F0ED2402B4046A
:101AF2000050B9F582EB2402B4040050AF23234511
:061B02008223901A6273B9
:101B0800BB010689828A83E0225002E722BBFE02DB
:091B1800E32289828A83E493220E
:101B2100BB010CE58229F582E5833AF583E0225079
:101B310006E92582F8E622BBFE06E92582F8E222C3
:0D1B4100E58229F582E5833AF583E49322DD
:101B4E00BB010689828A83F0225002F722BBFE0176
:021B5E00F32270
:101B6000EF8DF0A4A8F0CF8CF0A428CE8DF0A42E99
:021B7000FE2253
:101B7200BC000BBE0029EF8DF084FFADF022E4CC57
:101B8200F875F008EF2FFFEE33FEEC33FCEE9DEC20
:101B9200984005FCEE9DFE0FD5F0E9E4CEFD22ED66
:101BA200F8F5F0EE8420D21CFEADF075F008EF2FB0
:101BB200FFED33FD4007985006D5F0F222C398FDA1
:051BC2000FD5F0EA223E
:101BC700A3F8E0C5F025F0F0E582158270021583D1
:061BD700E0C838F0E8222E
:101BDD00BB0110E58229F582E5833AF583E0F5F046
:101BED00A3E0225009E92582F886F008E622BBFE23
:101BFD000AE92582F8E2F5F008E222E5832AF58369
:081C0D00E993F5F0A3E993222D
:101C150075F008758200EF2FFFEE33FECD33CDCC86
:101C250033CCC58233C5829BED9AEC99E582984009
:101C35000CF582EE9BFEED9AFDEC99FC0FD5F0D6E6
:101C4500E4CEFBE4CDFAE4CCF9A88222B800C1B910
:101C55000059BA002DEC8BF084CFCECDFCE5F0CB4E
:101C6500F97818EF2FFFEE33FEED33FDEC33FCEB87
:101C750033FB10D703994004EB99FB0FD8E5E4F942
:101C8500FA227818EF2FFFEE33FEED33FDEC33FC2F
:101C9500C933C910D7059BE99A4007EC9BFCE99A23
:101CA500F90FD8E0E4C9FAE4CCFB2275F010EF2F68
:101CB500FFEE33FEED33FDCC33CCC833C810D70768
:101CC5009BEC9AE899400AED9BFDEC9AFCE899F8A3
:0E1CD5000FD5F0DAE4CDFBE4CCFAE4C8F92236
:101CE300EB9FF5F0EA9E42F0E99D42F0E89C45F057
:011CF30022CE
:101CF400E8600FECC313FCED13FDEE13FEEF13FFCE
:031D0400D8F122F1
:101D0700BB010DE58229F582E5833AF583021E16AC
:101D17005007E92582F8021E0ABBFE07E92582F86B
:101D2700021E22E58229F582E5833AF583021E2EFB
:101D3700BB010DE58229F582E5833AF583021D8B08
:101D47005007E92582F8021E74BBFE07E92582F8D1
:041D5700021E8022C6
:101D5B00BB010DE58229F582E5833AF583021E4B23
:101D6B005007E92582F8021E3EBBFE07E92582F8E3
:101D7B00021E57E58229F582E5833AF583021E643C
:0C1D8B00ECF0A3EDF0A3EEF0A3EFF022CB
:101D9700A8828583F0D083D082121DAE121DAE12A9
:101DA7001DAE121DAEE473E493A3C583C5F0C583CE
:101DB700C8C582C8F0A3C583C5F0C583C8C582C896
:011DC70022F9
:0C1DC800A42582F582E5F03583F5832226
:101DD400BB010DE58229F582E5833AF583021E9560
:101DE4005007E92582F8021E8CBBFE07E92582F81C
:101DF400021EBEE58229F582E5833AF583021EC7F9
:061E04008A838982E47369
:1026B100E5082448F582E43408F583E00508229012
:1026C1000845300703900848E475F001121E9E0288
:1026D1001B082000E97F2ED2008018EF540F2490B0
:1026E100D43440D4FF30040BEF24BFB41A0050039C
:1026F1002461FFE50960021509050CE50C7002056E
:102701000B30070E900845E475F001121E9EEF0292
:102711001B4E0200067403D2078003E4C207F508CA
:10272100900845121EB5E4F509F50BF50CE50960B5
:10273100077F201226F480F5750AFFC201C200C28C
:1027410002C203C205C206C2081226C0FF700D30C4
:1027510007057F00122705AF0CAE0B22B4255FC21F
:10276100D5C2041226C0FF24D0B40A00501A75F055
:102771000A780930D50508B6FF0106C6A426F62059
:10278100D5047002D20380D924CFB41A00EF5004CB
:10279100C2E5D204022906D20180C6D20080C0D28D
:1027A1000280BCD2D580BAD20580B47F201226F433
:1027B1002002077401B5090040F11226B1FF12266B
:1027C100F402272ED208D20680951226B1FB1226DA
:1027D100B1FA1226B1F94A4B700679D77A297BFFF3
:1027E10020022EE509602A7E008E82758300121B6D
:1027F1002160060EEE650A70F0C2D5EBC0E0EAC0BA
:10280100E0E9C0E0EE12294DD0E0F9D0E0FAD0E0E5
:10281100FB121B08FF60AAEBC0E0EAC0E0E9C0E0E0
:102821001226F4D0E02401F9D0E03400FAD0E0FB24
:10283100E50A0460DCD50AD980877BFF7A297949CA
:10284100D202809C791080027908C206C2088008F1
:10285100D2D5790A8004790AC2D5E50A047002F555
:102861000AE4FAFDFEFF1226B1FC7B0820011312D7
:1028710026B1FD7B1030000A1226B1FE1226B1FFEF
:102881007B20EC3382D592D55013C3E43000069FF0
:10289100FFE49EFEE42001039DFDE49CFCE4CBF8F3
:1028A100C201EC700CCFCECDCCE824F8F870F380E7
:1028B10017C3EF33FFEE33FEED33FDEC33FCEB33A7
:1028C100FB994002FB0FD8E9EB300105F8D0E0C4D9
:1028D10048B201C0E00AEC4D4E4F78207B0070C237
:1028E100EAB50A0040BCC0E012294FD0F0D0E02088
:1028F1000104C4C0E0C4B201C0F01226DDD0F0D59D
:10290100F0EB02272E121ED327CB53284558279CC4
:102911004C27984228494F28514428514927B1430F
:08292100285755283B46283BCE
:1029290045283B4729F75027A02D27A42E27C72B39
:1029390027A82327C52029E02A276048000027BFA8
:102949003F3F3F00790AA2D5200314300509B91089
:10295900020404B9080104A2D5200602500104208A
:1029690002689202B509005034C0E07F2030031993
:102979007F30A20272067205500F1229A6C202C246
:1029890006C205C2087F30800F300503E9C0E01296
:1029990026F4300503D0E0F9D0E0B509CC300517AD
:1029A9007F30B9100C1226F47F583004077F7880E5
:1029B90003B908031226F43002057F2D0226F47F9D
:1029C900202008F87F2B2006F322920280CF286E60
:1029D900756C6C2900D2011226B13001F8C2017858
:1029E9000930D50108F60227602D504349581226AF
:1029F900B12403B405004001E49029F2931226E5BD
:0D2A0900743A1226E5D2037509040228452F
:1044D800024CE4E493A3F8E493A34003F68001F2CA
:1044E80008DFF48029E493A3F85407240CC8C333E5
:1044F800C4540F4420C8834004F456800146F6DFB4
:10450800E4800B0102040810204080903818E47EF3
:10451800019360BCA3FF543F30E509541FFEE493A8
:10452800A360010ECF54C025E060A840B8E493A36F
:10453800FAE493A3F8E493A3C8C582C8CAC583CA9A
:10454800F0A3C8C582C8CAC583CADFE9DEE780BE52
:01392A00009C
:0C1E0A00E6FC08E6FD08E6FE08E6FF2204
:0C1E1600E0FCA3E0FDA3E0FEA3E0FF223F
:0C1E2200E2FC08E2FD08E2FE08E2FF22FC
:101E2E00E493FC740193FD740293FE740393FF22FA
:0D1E3E00E6FB08E6F908E6FA08E6CBF82214
:0C1E4B00E0F8A3E0F9A3E0FAA3E0FB221A
:0D1E5700E2FB08E2F908E2FA08E2CBF8220B
:101E6400E493F8740193F9740293FA740393FB22D4
:0C1E7400ECF608EDF608EEF608EFF6229A
:0C1E8000ECF208EDF208EEF208EFF2229E
:091E8C00E6FB08E6FA08E6F9227B
:091E9500E0FBA3E0FAA3E0F9224E
:101E9E00F8E0FBA3A3E0F925F0F0E58215827002CD
:071EAE001583E0FA38F02271
:091EB500EBF0A3EAF0A3E9F0222E
:091EBE00E2FB08E2FA08E2F92255
:0C1EC700E493FB740193FA740293F92277
:101ED300D083D082F8E4937012740193700DA3A39E
:101EE30093F8740193F5828883E4737402936860B2
:061EF300EFA3A3A380DFB2
:00000001FF
